:10000000F8950120F1020000ED020000ED02000071
:10001000ED020000ED020000ED0200000000000013
:10002000000000000000000000000000ED020000E1
:10003000ED02000000000000ED020000B598000095
:10004000ED020000ED020000ED020000ED020000F4
:10005000ED020000ED020000ED020000ED020000E4
:10006000ED020000ED020000ED020000ED020000D4
:10007000ED020000ED020000ED020000ED020000C4
:10008000ED020000ED020000ED020000ED020000B4
:10009000ED020000ED020000ED020000ED020000A4
:1000A000ED020000ED020000ED020000ED02000094
:1000B000ED020000ED020000ED020000ED02000084
:1000C000ED020000ED020000ED020000ED02000074
:1000D000ED020000ED020000ED020000ED02000064
:1000E000ED020000ED020000000000000000000032
:1000F00000000000B12000002D2B0000412B00006B
:10010000552B0000692B0000ED020000ED020000FD
:10011000ED020000ED020000ED020000ED02000023
:10012000ED020000ED020000ED020000ED02000013
:10013000ED020000ED020000ED020000ED02000003
:10014000ED020000ED020000ED020000ED020000F3
:10015000ED020000ED020000ED020000ED020000E3
:10016000ED020000ED020000ED020000ED020000D3
:10017000ED020000ED0200000000000000000000A1
:10018000ED020000ED020000ED020000ED020000B3
:10019000191B0000ED020000ED020000ED0200005E
:1001A000ED020000ED020000ED020000ED02000093
:1001B000ED020000ED020000ED020000ED02000083
:1001C000ED020000ED020000ED020000ED02000073
:1001D000ED020000ED020000ED020000ED02000063
:1001E000ED020000ED020000ED020000F12D000024
:1001F000ED020000ED020000ED020000ED02000043
:10020000ED020000ED020000ED020000ED02000032
:10021000ED020000ED020000ED020000ED02000022
:10022000ED020000ED020000ED020000ED02000012
:10023000ED020000ED020000ED020000ED02000002
:10024000ED020000ED020000ED020000ED020000F2
:10025000ED020000ED020000ED020000ED020000E2
:10026000ED02000010B5054C237833B9044B13B1EF
:100270000448AFF300800123237010BD80000020EC
:1002800000000000ACC900000C4B43B10C480D4904
:1002900010B5AFF300800C48036823B910BD0A48BD
:1002A000036833B97047094B002BF7D0BDE8104005
:1002B0001847064B002BF5D0184700BF0000000080
:1002C000ACC9000084000020ACC9000000000000A0
:1002D00008B5034B9847034B9847034B984708BD15
:1002E000F5060000CD0D0000CDA00000FEE70000E7
:1002F00008B51C4B1C4A9A4210D01C4B194A9A4212
:100300000CD2013B9B1A23F0030304331344164918
:1003100051F8040B42F8040B9A42F9D1144B154AD8
:100320009A420AD2013B9B1A23F00303043313447D
:10033000002142F8041B9342FBD10F4B0F4A22F0DD
:100340007F029A60D3F8882042F47002C3F88820B4
:10035000BFF34F8FBFF36F8F094B9847094B9847F7
:10036000FEE700BF00000020ACC9000074000020C0
:10037000F49500208000002000ED00E00000000067
:10038000EDA00000759D0000054B4222C3F89C20A3
:10039000C3F88C20034A536943F480535361704778
:1003A000001C004000080040104B93F8512102F05F
:1003B000FE0242F0010283F8512193F8382102F045
:1003C0000F0242F0300283F8382193F8502102F0F6
:1003D000FE0242F0010283F8502193F8382102F026
:1003E000F00242F0030283F8382170470080004198
:1003F00010B582B0074B9847002300934FF48073E9
:10040000054A06490648074CA047074B984702B0E3
:1004100010BD00BF890300009C0000200030004098
:10042000FC810020B5150000A9030000104B93F8D3
:100430005B2102F0FE0242F0010283F85B2193F897
:100440003D2102F00F0242F0200283F83D2193F893
:100450005C2102F0FE0242F0010283F85C2193F875
:100460003E2102F0F00242F0020283F83E21704782
:1004700000800041054B4222C3F8A020C3F88C2025
:10048000034A536943F4005353617047001C004012
:100490000008004008B5054B98470022044905486C
:1004A000054B9847054B984708BD00BF75040000F1
:1004B00000340040F0810020E11700002D0400000E
:1004C000164B93F8562002F0FB0283F8562093F85F
:1004D000562002F0FE0242F0010283F8562093F803
:1004E0003B2002F0F00242F0020283F83B2093F836
:1004F000572002F0FB0283F8572093F8572002F0B0
:10050000FE0242F0010283F8572093F83B2002F0EC
:100510000F0242F0200283F83B2070470080004128
:10052000064B4022C3F8E0204222C3F88C20044A44
:10053000936943F480639361704700BF001C0040DF
:100540000008004008B5044B984704490448054B8F
:100550009847054B984708BD210500000040014120
:100560004C820020510F0000C1040000504B93F852
:100570004B2102F0FE0242F0010283F84B2193F876
:10058000352102F00F0242F0B00283F8352193F8D2
:100590004C2102F0FE0242F0010283F84C2193F854
:1005A000362102F0F00242F00B0283F8362193F874
:1005B0004D2002F0FE0242F0010283F84D2093F834
:1005C000362002F00F0242F0B00283F8362093F892
:1005D0004C2002F0FE0242F0010283F84C2093F816
:1005E000362002F0F00242F00B0283F8362093F836
:1005F000542102F0FE0242F0010283F8542193F8E4
:100600003A2102F0F00242F00B0283F83A2193F80B
:100610004F2002F0FE0242F0010283F84F2093F8CF
:10062000372002F00F0242F0B00283F8372093F82F
:10063000522002F0FE0242F0010283F8522093F8A9
:10064000392002F0F00242F00B0283F8392093F8CF
:10065000532002F0FE0242F0010283F8532093F887
:10066000392002F00F0242F0B00283F8392093F8EB
:100670004E2002F0FE0242F0010283F84E2093F871
:10068000372002F0F00242F00B0283F8372093F893
:10069000512002F0FE0242F0010283F8512093F84B
:1006A000382002F00F0242F0B00283F83820704781
:1006B00000800041044B1A6942F480421A61DA69F1
:1006C00042F00402DA6170470008004008B5044BAC
:1006D000984704490448054B9847054B984708BD7F
:1006E000B5060000000800426C82002021100000C6
:1006F0006D0500002DE9F84FE24B9847E24B1022C0
:100700005A619A6002F180429A624FF040429A62C6
:1007100093F8441001F0FE0183F844102021596140
:10072000996001F1804199629A6293F8451001F055
:10073000FE0183F845104FF0400AC3F814A0C3F837
:1007400008A0D24999629A6293F8461001F0FE011E
:1007500083F846104FF08009C3F81490C3F808904E
:10076000CB4999629A6293F8471001F0FE0183F831
:1007700047104FF48078C3F81480C3F80880C54947
:1007800099629A6293F8481001F0FE0183F84810CC
:100790004FF4007CC3F814C0C3F808C0BE49996286
:1007A0009A6293F8491001F0FE0183F849104FF462
:1007B000806EC3F814E0C3F808E0B84999629A6201
:1007C00093F84A1001F0FE0183F84A104FF40067D5
:1007D0005F619F60B24999629A6293F84B1001F091
:1007E000FE0183F84B104FF480165E619E604FF05F
:1007F00080419962AB48986293F8540000F0FE0083
:1008000083F854004FF40010586198609962A6482C
:10081000986293F8550000F0FE0083F855004FF001
:1008200080745C619C609962A048986293F858005B
:1008300000F0FE0083F858004FF000705861986097
:1008400099629B4D9D6293F859B00BF0FE0B83F8B3
:1008500059B04FF0010BC3F894B0C3F888B00BF156
:10086000804BC3F8A8B0C3F8A82093F8C0B00BF031
:10087000FE0B83F8C0B04FF0020BC3F894B0C3F87E
:1008800088B00BF1804BC3F8A8B0C3F8A82093F848
:10089000C1B00BF0FE0B83F8C1B04FF0040BC3F8EE
:1008A00094B0C3F888B00BF1804BC3F8A8B0C3F87C
:1008B000A82093F8C2B00BF0FE0B83F8C2B04FF043
:1008C000080BC3F894B0C3F888B00BF1804BC3F8A1
:1008D000A8B0C3F8A82093F8C3B00BF0FE0B83F8C0
:1008E000C3B0C3F894A0C3F888A0684DC3F8A8505B
:1008F000C3F8A82093F8C6A00AF0FE0A83F8C6A0A1
:10090000C3F89490C3F888904035C3F8A850C3F852
:10091000A82093F8C79009F0FE0983F8C790C3F8A0
:100920009480C3F888808035C3F8A850C3F8A82005
:1009300093F8C88008F0FE0883F8C880C3F894C014
:10094000C3F888C005F58075C3F8A850C3F8A8207F
:1009500093F8C9C00CF0FE0C83F8C9C0C3F894E04A
:10096000C3F888E005F50075C3F8A850C3F8A820BF
:1009700093F8CAE00EF0FE0E83F8CAE0C3F8947054
:10098000C3F8887005F58065C3F8A850C3F8A8209F
:1009900093F8CB7007F0FE0783F8CB704FF48057C5
:1009A000C3F89470C3F8887007F18047C3F8A87043
:1009B000C3F8A82093F8CC7007F0FE0783F8CC703A
:1009C0004FF40057C3F89470C3F8887007F180475C
:1009D000C3F8A870C3F8A82093F8CD7007F0FE07FD
:1009E00083F8CD704FF4804CC3F894C0C3F888C02E
:1009F0004FF0402BC3F8A8B0C3F8A82093F8CE70EE
:100A000007F0FE0783F8CE704FF48037C3F8947078
:100A1000C3F88870C3F8A810264FC3F8A87093F8DD
:100A2000D07007F0FE0783F8D0704FF40037C3F89A
:100A30009470C3F88870C3F8A8101F4FC3F8A8704B
:100A400093F8D17007F0FE0783F8D1704FF4802E31
:100A5000C3F894E0C3F888E0C3F8A810DFF85CA0FE
:100A6000C3F8A8A093F8D27007F0FE0783F8D270FD
:100A70004FF40027C3F89470C3F88870C3F8A81027
:100A80001EE000BF611A00000080004140000040ED
:100A900080000040000100400002004000040040CF
:100AA00000080040100000C0200000C0000100C08D
:100AB000000200C0010000C0020000C0040000C02D
:100AC000DFF88C91C3F8A89093F8D38008F0FE0863
:100AD00083F8D380C3F89460C3F88860C3F8A81083
:100AE0004D4DC3F8A85093F8D46006F0FE0683F885
:100AF000D4604FF40015C3F89450C3F88850C3F87D
:100B0000A810464DC3F8A85093F8D55005F0FE053F
:100B100083F8D550C3F89440C3F88840C3F8A810B0
:100B20003F4DC3F8A85093F8D85005F0FE0583F860
:100B3000D850C3F89400C3F88800C3F8A810394D02
:100B4000C3F8A85093F8D95005F0FE0583F8D950A2
:100B5000C3F818C1C3F808C1C3F828B1C3F82821E5
:100B600093F84E2102F0FE0283F84E21C3F814E1FF
:100B7000C3F808E1C3F82811C3F828A193F852215B
:100B800002F0FE0283F85221C3F81471C3F8087111
:100B9000C3F82811C3F8289193F8532102F0FE02FC
:100BA00083F85321C3F81441C3F80841C3F828114E
:100BB0001B4AC3F8282193F8582102F0FE0283F85B
:100BC0005821C3F81401C3F80801C3F82811154AC5
:100BD000C3F8282193F8592102F0FE0283F8592125
:100BE000114B9847114B9847114B9847114B5B6934
:100BF00043F480430F4A536142220F4BC3F8A420B1
:100C00000E4B984702460E490E480F4B98470F4B24
:100C10009847BDE8F88F00BF100000C0200000C05A
:100C2000000100C0000200C0F103000095040000B4
:100C30004505000000080040001C0040AB2D0000EE
:100C40000038004088820020E5120000CD06000038
:100C5000080000C070B50D461646044660B169B183
:100C60001F2A8CBF002001202A220549054B9847E6
:100C70002560A680002070BD0020F5E70020F3E786
:100C800058B200007D180000F0B583B00D4616463E
:100C90000446A8B10368ABB11F298CBF0020012016
:100CA00057220F490F4B98470DF106032A46A1889A
:100CB00020680D4FB847034630B1184603B0F0BD69
:100CC0000020EDE70020EBE7BDF806303343ADF838
:100CD00006302A46A1882068044CA0470346ECE76A
:100CE00058B200007D180000D5110000A1110000CD
:100CF00010B5044690220649003018BF0120054B6C
:100D000098474FF4007200212046034B984710BDCE
:100D100058B200007D180000890C000030B583B087
:100D20000D460446C8B10368CBB1081C18BF0120AA
:100D3000A9220C490C4B98470DF106030122A1880A
:100D400020680A4CA047024620B9BDF80630C3F31C
:100D500080032B70104603B030BD0020E8E7002070
:100D6000E6E700BF58B200007D180000D511000072
:100D700010B5054C2046054B9847002221460448F3
:100D8000044B984710BD00BF6C820020511000003A
:100D9000E8810020550C000030B583B00848094BAD
:100DA000984700B1FEE7064D074C0DF107012846B4
:100DB000A04718B99DF80730002BF6D003B030BD1E
:100DC000E8810020F10C00001D0D000008B50D4B5E
:100DD0004FF48042C3F888204FF04020C3F8A800A9
:100DE0004FF04041C3F8A810C3F89820C3F8082179
:100DF000C3F82801C3F82811C3F81821024B9847FB
:100E000008BD00BF00800041710D000008B50E4A0A
:100E100042610E4A82610E4B6A2283F835204FF4FC
:100E2000C0629A850B4A1168C3F82F109288A3F804
:100E30003320062283F82E2046F66562DA86064BBA
:100E40009847002008BD00BF9D9300003D2E000084
:100E5000AC820020A4820020112E000010B588B0C2
:100E600000220792069208AB43F80C2D084A01684D
:100E7000116081889180074A0292074A0192074ACD
:100E8000009206AA07A90648064CA04708B010BD64
:100E9000A4820020BD9400000D0E00006C82002092
:100EA000AC820020055B000008B5014B984708BDE7
:100EB00059480000EFF31083036072B6BFF35F8FF1
:100EC0007047BFF35F8F036883F31088704700009B
:100ED00010B5044B1C68044B984701462046034B51
:100EE000984710BD9C010020351A0000591A0000D7
:100EF00010B584B014460389ADF8043002924FF463
:100F00000043ADF80630039101A91438034B98470C
:100F1000002808BF204604B010BD00BF1126000005
:100F200010B584B014460389ADF80430029248F23B
:100F30000103ADF80630039101A91438034B98471B
:100F4000002808BF204604B010BD00BF11260000D5
:100F500038B50D4604465E220849003018BF01200E
:100F6000074B984729462046064B9847034618B931
:100F7000054AA261054A6261184638BD78B2000090
:100F80007D18000069250000210F0000F10E00000F
:100F900008B5014B984708BD99250000C1F3090128
:100FA00002F480620A4382831046704770B50D4692
:100FB0001646044660B1081C18BF012034220549BA
:100FC000054B98472368324629462046984770BD0E
:100FD0000020F3E794B200007D18000070B50D46C4
:100FE0001646044660B1081C18BF01203D22054981
:100FF000054B98476368324629462046984770BD9E
:101000000020F3E794B200007D18000008B54369A2
:1010100003B1984708BD08B5836903B1984708BD77
:1010200038B50C46054658B1081C18BF01203122BE
:101030000449054B984721462846044B984738BD3C
:101040000020F4E7A8B200007D180000751B000026
:1010500010B5044645220549003018BF0120044B55
:1010600098472046034B984710BD00BFA8B2000028
:101070007D1800003D1C000070B50C461546064664
:1010800068B171B1101C18BF012057220649074BE7
:1010900098472A4621463046054B984770BD0020A8
:1010A000F3E70020F1E700BFA8B200007D180000C0
:1010B0004D1C000070B50D461646044661220649D7
:1010C000003018BF0120054B98473246294620467C
:1010D000034B984770BD00BFA8B200007D18000008
:1010E000851D000010B504466B220549003018BF6D
:1010F0000120044B98472046034B984710BD00BF82
:10110000A8B200007D180000B91E000070B50C46A2
:101110001646054689221049003018BF01200F4BA2
:10112000984724B1012C0CD06FF00C0070BD6E619B
:10113000002E0B4A08BF002200212846094B984781
:1011400070BDAE61002E084A08BF0022012128466A
:10115000044B984770BD00BFA8B200007D18000086
:101160000D100000211F00001710000070B50E4682
:101170001446054660B1101C18BF01209B2205498A
:10118000054B9847224631462846044B984770BD88
:101190000020F3E7A8B200007D180000511F0000F6
:1011A000F8B50D4616461F460446AF2206490030E4
:1011B00018BF0120054B98473B463246294620463A
:1011C000034CA047F8BD00BFA8B200007D18000086
:1011D000991F0000F8B50E4617461C46054668B133
:1011E000181C18BF0120B8220549064B9847234612
:1011F0003A4631462846044CA047F8BD0020F2E7A5
:10120000A8B200007D180000D91F0000F8B5844680
:1012100007682FB18D683C460026C2F1010E0BE035
:101220000E4B9847F8BD7344A0680344AB420AD202
:101230002368264653B11C4663689342F3D8A068DE
:1012400003449B1AF2E7A74204D034462046044BDD
:101250009847F8BD6046014B9847F8BDA5180000B7
:10126000D11800002DE9F04744690769013707618B
:10127000037E13F0010F13D1037E13F0020F0FD181
:1012800054B36368FB1AA268934207D3064600F181
:101290001408DFF84890DFF848A012E0BDE8F087B6
:1012A000037E43F002030376BDE8F0877569E368C7
:1012B0002046984785B12C466B68FB1AAA68934272
:1012C0000AD34046C847237C012BEFD167603A46DA
:1012D00021464046D047E9E7BDE8F087D91800002D
:1012E0000D12000038B50D46044678B1081C18BF31
:1012F00001203B220649074B984729462046064BCA
:10130000984700202061054B236038BD0020F0E79E
:10131000C4B200007D180000DD2B00006512000043
:1013200010B5044653220949003018BF0120084B6C
:1013300098472046074B984720B92046064B9847C8
:10134000002010BD6FF0100010BD00BFC4B200003F
:101350007D180000992D0000852D000070B582B029
:101360000D46044618B3081C18BF01207A221E49F6
:101370001E4B9847237E43F00103237604F11406A5
:10138000294630461A4B984798B923696B60226901
:1013900029463046174B9847237E03F0FE032376F9
:1013A000237E13F0020F10D1002002B070BD002088
:1013B000DCE7237E03F0FE0323767F220A49002028
:1013C0000A4B98476FF01100EFE701A80A4B9847C6
:1013D000237E03F0FD0323762046084B984701A89F
:1013E000074B98470020E0E7C4B200007D180000DA
:1013F000831800000D120000B50E0000B12D000092
:10140000C30E000008B500238362C3691BB1A0F1BD
:1014100008021046984708BD08B500238362436A56
:101420001BB1A0F108021046984708BD38B5044624
:10143000A0F108052C30034B9847236A0BB12846CE
:10144000984738BD7919000070B50E461546044618
:10145000E0B1E9B1101C18BF012040F23B120F4966
:101460000F4B9847B4F84420B4F84C309A4211D14D
:10147000A664A4F84C500023A4F84430012323634D
:1014800004F10800074B9847284670BD0020E4E7A8
:101490000020E2E76FF01B0070BD00BFDCB200006F
:1014A0007D180000EB24000010B50446838FB0F8CF
:1014B00044209A4209D0026C591C8187D15C044BAC
:1014C00098472046034B984710BD034B984710BDE3
:1014D000BF240000EB240000F32400002DE9F047B6
:1014E00082B00F4690460646A0B199B1002A2DD190
:1014F0004FF4AC7229490020294B984701A8294B89
:10150000984706F13400284B984701A8274B984785
:1015100000253EE04FF4AC7220490020204B984754
:1015200001A8204B984706F1340A50461E4B9847B5
:10153000814601A81D4B9847B9F1000F04D0B8F1BE
:10154000000F19D1002524E0002522E04FF4AC72F1
:1015500012490120124B984701A8124B984706F1F7
:10156000340A5046104B9847814601A80F4B9847C4
:101570000025B9F1000F0CD000240D4E601C85B27F
:1015800039195046B04701344C4502D2A3B29845B0
:10159000F4D8284602B0BDE8F08700BFDCB20000F6
:1015A0007D180000B50E0000B9190000C30E000040
:1015B00035190000F8B50D4616461F46044620B3FF
:1015C00029B332B3181C18BF01203A221349144B17
:1015D00098473A46314604F13400124B9847D0B947
:1015E000294604F10800104B9847034658B90F4AA2
:1015F00062600F4A22600F4AA2600F4AE2600F4AFF
:1016000022610F4A62611846F8BD0020DDE7002024
:10161000DBE70020D9E76FF00C03F4E7DCB2000051
:101620007D180000E51800000D240000DD14000006
:1016300049140000A91400002D1400000514000036
:101640001914000010B5044661220649003018BF85
:101650000120054B984704F10800044B98470020EF
:1016600010BD00BFDCB200007D180000A524000002
:1016700038B50C46054648B1081C18BF0120772232
:101680000349044B98472560002038BD0020F6E749
:10169000DCB200007D18000070B50C461646054609
:1016A00083221749003018BF0120164B9847012CA0
:1016B00010D024B1022C18D06FF00C0070BDAE62B7
:1016C000321C18BF0122012105F108000E4B98477A
:1016D000002070BD6E62321C18BF0122022105F18C
:1016E0000800094B9847002070BDEE62321C18BFFD
:1016F0000122032105F10800034B9847002070BD2B
:10170000DCB200007D180000FD2400002DE9F84344
:101710000F469046044628B331B3101C18BF012071
:10172000F1221249124B98470834124D2046A8471F
:101730000028FBD0013F0026DFF840900D4D17F840
:10174000011F2046C8472046A8470028FBD0013685
:101750004645F4D3084D2046A8470028FBD0304624
:10176000BDE8F8830020DBE70020D9E7FCB20000E9
:101770007D180000CD240000D7240000B92400000B
:101780002DE9F8430F4690460446E0B1E9B1101C3C
:1017900018BF01204FF486720D490E4B9847013F48
:1017A000002608340C4DDFF834902046A847002866
:1017B000FBD02046C84707F8010F01364645F4D351
:1017C0003046BDE8F8830020E4E70020E2E700BFF0
:1017D000FCB200007D180000E1240000C5240000D8
:1017E00038B50D46044698B1081C18BF01203422B4
:1017F0000849094B9847294604F10800074B9847C8
:10180000034618B9064A6260064A2260184638BD87
:101810000020ECE7FCB200007D180000E12300008E
:10182000811700000D17000010B504465322064929
:10183000003018BF0120054B984704F10800044B05
:101840009847002010BD00BFFCB200007D180000CA
:101850009124000038B50C46054648B1081C18BF55
:10186000012069220349044B98472560002038BDB8
:101870000020F6E7FCB200007D18000000B900BEB1
:10188000704703684BB18B4209D01B681BB199426A
:10189000FBD10120704700207047002070470120D5
:1018A0007047000038B504460D46064B984780F057
:1018B000010039220449C0B2044B984723682B60C9
:1018C000256038BD8318000018B300007D180000A3
:1018D00003680B600160704703680BB11A6802600F
:1018E0001846704770B50E461546044678B181B16A
:1018F000A2B1012028220D490D4B98476B1E1D42B5
:1019000009D163600020A060E060266070BD002007
:10191000F0E70020EEE76FF00C0070BD28220349CD
:101920000020034B98476B1EEBE700BF38B3000065
:101930007D18000038B50D460446A0B1081C18BF3C
:10194000012040220A490B4B9847A368E2689A425B
:101950000BD0626813402268D35C2B70A3680133FC
:10196000A360002038BD0020EBE76FF0090038BD10
:1019700038B300007D18000038B50D4604465122EA
:101980000B49003018BF01200A4B9847E368626892
:1019900013402268D554E3686168A2689A1A8A42A3
:1019A00084BF591AA1600133E360002038BD00BF35
:1019B00038B300007D18000010B5044667220549C1
:1019C000003018BF0120044B9847E068A368C01A94
:1019D00010BD00BF38B300007D1800000346064A62
:1019E000126822B1044A1068034413607047034927
:1019F000014A1160F6E700BFA0010020F895012020
:101A00004FF0FF3070474FF400534B600020704799
:101A10000120704700207047430900F01F00012299
:101A200002FA00F04033024A42F82300704700BF38
:101A300000E100E0C0EB0010C30002330448A0FB4B
:101A400003235B084FF47A7000FB03F0704700BF7C
:101A5000ABAAAAAA000000000139FDD8704700BF58
:101A600010B5094A13889BB21380084B9847084B5E
:101A70009847084B98470220074CA047074B9847C8
:101A800040F6FD70A04710BD004000412920000035
:101A90003D2000001D200000A11A00006D20000064
:101AA00010F0010F08D0174A174B1A62194643F677
:101AB000FD724B681342FCD110F0020F08D0134A9C
:101AC000114B5A62194643F6FD724B681342FCD122
:101AD00010F0040F08D00E4A0B4B9A62194643F6D9
:101AE000FD724B681342FCD110F0080F08D0094A70
:101AF000054BDA62194643F6FD724B681342FCD17E
:101B0000704700BF07090100001C004000090600E3
:101B1000010906000409010000B583B0144B1868E0
:101B200003685A6901921A6A00925A6A019A12F07D
:101B3000200F0BD0019A5A610D4B5A6803EBC20378
:101B4000DB7BDB0902D0436803B19847009B13F0AD
:101B5000020F04D0064B1868836803B19847044B02
:101B60001B681B68009A1A6203B05DF804FB00BF93
:101B7000C001002030B40160294B0B600368294A82
:101B80005A6002680023D360026827491161026825
:101B9000C2F8B830026840F20111C2F8BC10234903
:101BA00001F120028A60CB608022CA7301F2FC52EC
:101BB0000A614B61C022CA754B60C1F8D83B01F580
:101BC0003E631B4A01F59F51002442F8043C42F851
:101BD000084B80338B42F8D1164B93F8602342F0C8
:101BE000020283F860230021C3F8681304680F4AD7
:101BF00002F10805E561046803F53A73A36110601A
:101C00000D4B4FF48012C3F88820BFF34F8FBFF302
:101C10006F8FC3F888219A60084630BC704700BFB8
:101C2000100003000301100004070200C00100209F
:101C3000A4150020B812002000E100E0026813683B
:101C400043F00C0313600020704700002DE9F84FAB
:101C500082461446494BD3F8D82B03EBC203DB7BF7
:101C6000DB0916D0454BD3F8D82B03EBC2035B7BC3
:101C7000DB090ED1414BD3F8D83B5A1C012A88BF4F
:101C800003F1FF323D4B03EBC203DA7B42F08002EB
:101C9000DA733A4B5A6803EBC203DB7BDB0964D08F
:101CA00040F2DC539C420CD9344B5B685A1C012A2D
:101CB00088BF03F1FF32314B03EBC203DB7BDB094F
:101CC00057D02E4B5A68C3F8D82B0F4601F6B838B8
:101CD0001E4603F1200BDFF8A89027E0274B5A6837
:101CE00003EBC202D5605A6803EBC202517B41F09C
:101CF000800151735A6801325A605B68022B06D129
:101D00001E4B00225A60DA7D42F04002DA75BFF3C2
:101D10004F8FDAF80020136843F40073136000203B
:101D2000BDE8F88F07F2DC574745F0D040F2DC53AE
:101D300025469C4228BF1D4670682A46394603FB4B
:101D400000B0C847641BC9D0736806EBC303DD60ED
:101D50007368013373607368022BE3D100237360EF
:101D6000F37D43F04003F375DCE76FF01B00BDE843
:101D7000F88F6FF01B00BDE8F88F00BFC001002096
:101D800053A100002DE9F04F83B0019191464FF02F
:101D9000FF370024454A02E00134102C74D0D2F8F9
:101DA000683323440F2B88BF103B02EBC30191F82B
:101DB000E81211F0010F61D002EBC30191F8ED12AE
:101DC000C1F38011002918BF274602EBC30191F827
:101DD000ED12C909E0D0B7F1FF3FDDD0334A02EB85
:101DE000C303B3F8EC32C3F30C03994528BF9946FB
:101DF000B4F1FF3F18BF04F101084BD1B84649E0E8
:101E0000D5F8683305EBC30393F8E8226FF30002BB
:101E100083F8E822D5F868330133C5F86833D5F87C
:101E20006833102B04BF0023C5F8683301364645DC
:101E300020D0B4F1FF3FE3D0BE42E1D3A642DFD8C9
:101E4000B9F1000FDCD0CB46B9F1800F28BF4FF0BD
:101E5000800BD5F868135A46154B03EBC111019856
:101E6000144B9847019B5B440193DA44A9EB0B099F
:101E7000C6E7C246504603B0BDE8F08FB7F1FF3F5A
:101E800005D1A0463C4605E0B7F1FF3F0AD0B84671
:101E90004FF0FF34B8F1000FEBD04FF0000A564678
:101EA000024DC6E7A0463C46F7E700BFB812002047
:101EB000A00D002053A1000070B40020064601468A
:101EC000164A012510E002EBC304B4F8EC42C4F357
:101ED0000C0420442E4602EBC30393F8ED32DB09D9
:101EE00019D10131102916D0D2F868330B440F2BC9
:101EF00088BF103B02EBC30494F8E84214F0010FD2
:101F000009D002EBC30494F8ED4214F0400FDAD18B
:101F1000002EE0D0D7E770BC704700BFB812002099
:101F200069B1012911D1426022B1036880229A620D
:101F30000020704703688022DA62002070478260C8
:101F4000036802229A62002070476FF00C0070470D
:101F500070B506460C46154640F2CF120C49032CCC
:101F60008CBF002001200B4B98473368296804F18F
:101F7000110243F832103368A98803EBC203596099
:101F80003368EA882A3443F82420002070BD00BF5B
:101F90005CB300007D18000030B405682C6844F084
:101FA00010042C600468920402F4F80243F0A04389
:101FB00043F400331A43C90501F078610A436263B0
:101FC0000268936813F0040FFBD0136823F010032A
:101FD0001360002030BC704730B405682C6844F0B2
:101FE00010042C600468920402F4F80242F0C0422B
:101FF00042F40032C90501F078610A436263016866
:102000008A6812F0040FFBD04A6B1A8002681368CA
:1020100023F010031360002030BC70470122014BF5
:102020005A71704700080040034BDA6902F47C5291
:10203000DA6101221A74704700140040084A094B03
:102040005A611A46136913F0010FFBD0064A054B7B
:102050009A611A46136913F0020FFBD0704700BF54
:102060000226000300100040062600033B220E4B10
:102070005A631A46D36B13F0060FFBD10A4B0B4A77
:102080009A63022283F830201A46D36B13F0020FB2
:10209000FBD1054B1A6C12F0010F03D11A6C12F030
:1020A000020FF7D0704700BF001000404000020050
:1020B00000B583B00D4B9B78DBB20193019B13F00D
:1020C000020F06D00A4B1B681BB1084A506898479C
:1020D00009E0019B13F0010F05D0054B5B6813B1BC
:1020E000024A5068984703B05DF804FB00000241C3
:1020F000E882002070B489B006466C460D4D0FCDC5
:102100000FC495E80F0084E80F00009BB3420DD088
:10211000314601AB012053F8042B8A4207D001302D
:102120000828F8D1002009B070BC70470020C0B268
:10213000F9E700BF74B3000010B58469237E13F083
:10214000010F03D0A37D13F0010F12D1237E13F0F2
:10215000020F03D0A37D13F0020F0FD1237E13F0E3
:10216000040F15D0638B03F0370363B1FF23638340
:1021700010BD012323750368984710BD0223237502
:102180008368984710BDA16A4368C9B2984710BDDB
:10219000237EDB0900D110BD80232376C3689847D6
:1021A000638B9BB26383F6E708B5034B98478000C7
:1021B0002E3000F0FE0008BDF520000010B50446EA
:1021C000414B984700285CD001285CD040F26B223C
:1021D0003E4900203E4B98470021E36913F0010F70
:1021E00022D14B005A183B4B03EBC2035A6A02F050
:1021F0001C02E36913F0030FFBD1236813F0020FF5
:102200000BD0236823F002032360E36913F0030F6C
:10221000FBD1E36913F0020FFBD142F0010222600F
:10222000E36913F0030FFBD1E36913F0010FFBD156
:102230000A464B000B44274901EBC301486A206062
:10224000E36913F0030FFBD153009918214B03EB03
:10225000C1039B6A6360E36913F01F0FFBD1530056
:1022600099181C4B03EBC103DB6AA36010F4C04F49
:102270000BD153009918174B03EBC1031B8EA3819D
:1022800011E00021A9E70121A7E7124B03EBC103ED
:10229000188EA18960F30C01A18193F83210A389F3
:1022A00061F34F33A3810B4B5100881803EBC0003F
:1022B00090F83300A0730A4403EBC20393F8343060
:1022C00084F83030002010BDF5200000DCB30000A1
:1022D0007D18000074B3000008B5074B9847032829
:1022E00008D040F2CE3205490020054B98474FF008
:1022F000FF3008BD002008BDF5200000DCB3000061
:102300007D18000038B505460C460846324B984704
:10231000C0B2E36913F0010F22D100EB40032F4A52
:1023200002EBC3035A6D02F01C02E36913F0030FC2
:10233000FBD1236813F0020F0BD0236823F00203B4
:102340002360E36913F0030FFBD1E36913F0020F7D
:10235000FBD142F001022260E36913F0030FFBD1CD
:10236000E36913F0010FFBD100EB40031B4A02EBC2
:10237000C3035A6D2260E36913F0030FFBD100EB36
:102380004003164901EBC3039B6D6360E36913F0DF
:10239000040FFBD100EB4003104901EBC303DB6DDD
:1023A000E360C2F30163AB81626A22F48042012BD5
:1023B00094BF0023012342EA83336362E36913F08D
:1023C000040FFBD100EB4000044B03EBC000B0F85E
:1023D0006230EB81002038BDD922000074B30000C8
:1023E00038B50C460546BD220549003018BF01200E
:1023F000044B98472C602046034B984738BD00BFDC
:10240000DCB300007D180000BD21000070B50D4652
:102410000646CB221849003018BF0120174B9847B9
:102420002846174B9847044608B1204670BDB56151
:10243000144B9D4204BF144B1E602846134B984713
:10244000011DC9B2012500F01F0205FA02F243097D
:102450009B0003F1604303F56143C3F88020BFF3A1
:102460004F8FBFF36F8FC3F880211A600130C0B265
:102470008142E8D1D9E700BFDCB300007D1800003D
:10248000BD2100000030004024160020A9210000DA
:102490000268136843F002031360D36913F0030F5B
:1024A000FBD170478269136843F002031360D3695C
:1024B00013F0030FFBD1704703689962704783697B
:1024C000996270470368986AC0B270470368187EC3
:1024D00000F0010070470368187EC0F340007047A9
:1024E0000368187EC0F380007047836901229A75E3
:1024F0007047836902229A757047000070B50C46D8
:102500001646054640F22B221549003018BF01201F
:10251000144B984714F0FD0F0DD1AB692EB9012271
:102520001A75AB6902221A7570BD01229A75AB69E2
:1025300002229A7570BD012C02D0032C08D070BD08
:10254000AB6916B904221A7570BD04229A7570BD64
:10255000AB6916B180229A75F1E780221A7570BDB9
:10256000DCB300007D18000038B50D4604464FF47A
:10257000A8620649003018BF0120054B9847256125
:1025800029462046034B984738BD00BFDCB3000006
:102590007D1800000523000070B51B4E044640F274
:1025A0005D523146003018BF0120184DA8472469FC
:1025B00040F22D623146201C18BF0120A847236835
:1025C00043F002032360E36913F0030FFBD10421FE
:1025D00010204FF6FF72E36913F0040FFBD1638BF9
:1025E000C3F30113012B09D0013AF4D1013907D00B
:1025F0006083E36913F0040FFBD1EAE7002070BDAC
:102600006FF0050070BD00BFDCB300007D18000056
:102610002DE9F84305460E46046910F1000818BF7D
:102620004FF00108DFF8C4924FF4BF6249464046BC
:10263000AD4FB847286940F2F9524946003018BFFB
:102640000120B84740F2FA524946301C18BF012019
:10265000B8476B8813F4807F40F0188273889BB270
:1026600043F48073738096E8070085E80700636889
:1026700043F480736360E36913F0040FFBD12F69A7
:10268000D7F8009040F2CD5298494046964B984773
:102690006B68012B5ED07B6823F480237B60FB6931
:1026A00013F0040FFBD12B8813F4806F5ED06A887F
:1026B00012F0010F04D06A8892B242F480626A80FC
:1026C00040F2FE7202EA4302FB6913F0040FFBD1F1
:1026D0007B6A03F4804343F4004313437B62FB694A
:1026E00013F0040FFBD129690B7EDBB24FF6FF72AA
:1026F00013F0030F03D10B7EDBB2013AF8D1396836
:10270000FA6912F0040FFBD17A8B92B213F0010F29
:1027100000F0A38012F0020F3CD001233B766B88BF
:102720009BB243F480536B806B8823F480731B044B
:102730001B0C6B8002F00102002A14BF6FF0040032
:102740006FF003006B8823F480731B041B0C6B80F9
:10275000BDE8F88319F0006F9DD07B6843F48023B7
:102760007B60FB6913F0040FFBD19CE769885A007A
:10277000D2B201F001031A43FB6913F0040FFBD13D
:102780007B6A03F480431A437A62FB6913F0040FF7
:10279000FBD1A8E712F0040F1DD16B8813F4806FF2
:1027A00037D02B88DB0903F00602FB6913F0040F16
:1027B000FBD17B6A03F4804343F0F10313437B6254
:1027C000FB6913F0040FFBD16B8823F480631B04B7
:1027D0001B0C6B8069E06B68002B04DD6B889BB27F
:1027E00043F480536B806B8813F4004F08D16B88DF
:1027F00023F480731B041B0C6B806FF00100A1E7B6
:102800007B6843F440337B60FB6913F0040FFBD11A
:10281000EDE76B689BB96B8813F4004F06D16B88AA
:1028200023F480731B041B0C6B803EE07B6843F435
:1028300040337B60FB6913F0040FFBD1EFE7AB681B
:102840001B78BB62FB6913F0040FFBD1AB6801334B
:10285000AB606B68013B6B6027E013F0020F24D084
:102860006B68002B3AD012F0040F37D1C1F3C0616E
:10287000013B6B60002B40F00D81002900F01081BE
:102880006B8813F4004F18D16B8823F480731B04FA
:102890001B0C6B80AA68531CAB60FB6913F0040F20
:1028A000FBD1BB6A137002233B760022104602273D
:1028B0006FF0010C4FF0010EB0E07B6823F48073E1
:1028C0007B60FB6913F0040FFBD17B6843F440335A
:1028D0007B60FB6913F0040FFBD1D5E702233B7645
:1028E0006FF001002EE700BF7D180000DCB3000090
:1028F000636843F440336360E36913F0040FFBD172
:10290000A1E012F0040F1ED16B8813F4806F37D052
:102910002B88DB0903F00602E36913F0040FFBD1F7
:10292000636A03F4804343F0F10313436362E36992
:1029300013F0040FFBD16B8823F480631B041B0C82
:102940006B8002466AE06B68002B04DD6B889BB2EB
:1029500043F480536B806B8813F4004F07D16B886E
:1029600023F480731B041B0C6B80624656E0636883
:1029700043F440336360E36913F0040FFBD1EEE7E7
:102980006B68A3B96B8813F4004F07D16B8823F4ED
:1029900080731B041B0C6B8002463FE0636843F4AA
:1029A00040336360E36913F0040FFBD1EEE7AB68DB
:1029B0001B78A362E36913F0040FFBD1AB6801330A
:1029C000AB606B68013B6B60024627E013F0020FBF
:1029D00057D06B68002B51D012F0040F4ED1C1F3C9
:1029E000C061013B6B60002B40F08C80002900F03F
:1029F0008F806B8813F4004F2FD16B8823F4807382
:102A00001B041B0C6B80AA68531CAB60E36913F0BA
:102A1000040FFBD1A36A1370277602466B8813F468
:102A2000807F30D029690B7EDBB24FF6FF7213F046
:102A3000030F42D10B7EDBB2013AF8D1738813F455
:102A4000004F7FF455AF6B8823F480731B041B0C7D
:102A50006B806FF00400BDE8F883636823F4807333
:102A60006360E36913F0040FFBD1636843F4403300
:102A70006360E36913F0040FFBD1BEE7277662467B
:102A8000CCE70246CAE71046BDE8F8836FF00500C0
:102A9000BDE8F883012B7FF4FDAE00293FF4FAAEC8
:102AA0007B6843F480237B60FB6913F0040FFBD148
:102AB0006B68002B3FF4E4AEECE62168E26912F0AB
:102AC000040FFBD1628B92B213F0010F3FF47EAF83
:102AD00012F0020F3FF415AF84F818E06B889BB238
:102AE00043F480536B806B8823F480731B041B0CAE
:102AF0006B8002F00102002A14BF6FF004026FF035
:102B000003028BE7012B7FF47EAF00293FF47BAFFC
:102B1000636843F480236360E36913F0040FFBD11F
:102B20006B68002B3FF465AF6DE700BF08B5024B43
:102B30001868024B984708BD241600203921000070
:102B400008B5024B1868024B984708BD24160020B0
:102B50003921000008B5024B1868024B984708BDA0
:102B6000241600203921000008B5024B1868024BDA
:102B7000984708BD241600203921000070B588B0A0
:102B800006466C46124D0FCD0FC495E80F0084E841
:102B90000F00009BB3420BD0304601AA012352F82C
:102BA000041B814205D00133082BF8D100200BE033
:102BB000002313F0FF0F09D04FF49E720549002047
:102BC000054B98474FF0FF3008B070BD0020FBE781
:102BD000F8B300002CB400007D18000070B5064664
:102BE0000C460846604B98470546F4608D225F49C5
:102BF00001205F4B9847236913F0010F19D1236916
:102C000013F0030FFBD1236813F0020F0BD02368DE
:102C100023F002032360236913F0030FFBD1236920
:102C200013F0020FFBD101232360236913F0030F7C
:102C3000FBD1236913F0010FFBD105EB85034D4A4E
:102C400002EB83035A6A2260236913F0030FFBD15E
:102C500005EB8503474901EB830393F82A10E173E1
:102C60001B8DE3800123237302F00C02082A48D055
:102C7000002A58D105EB85033E4A02EB83039B8D66
:102C8000A383236913F0C00FFBD10023E3832369DF
:102C900013F0C00FFBD101236372374B9C4204BF7A
:102CA000364B1E6005EB8503324A02EB8303B3F912
:102CB0002230002B23DB5A0903F01F03012101FA04
:102CC00003F320322E4941F82230BFF34F8FBFF378
:102CD0006F8F05EB8505274B03EB8505B5F9223092
:102CE000002B0CDB590903F01F03012202FA03F346
:102CF000234A01F1600042F8203042F821300020E0
:102D000070BD05EB85031B4A02EB8303DB6AE361BD
:102D1000236913F0C00FFBD100232362236913F052
:102D2000C00FFBD1B7E7042AB5D105EB8503114AE3
:102D300002EB830393F82C302377236913F0C00F41
:102D4000FBD100236377236913F0C00FFBD105EBA0
:102D50008503084A02EB830393F82B30E37623695B
:102D600013F0200FFBD196E77D2B00002CB4000060
:102D70007D180000F8B3000000380040281600203D
:102D800000E100E0C268136843F0020313601369B6
:102D900013F0030FFBD17047C268136913F0030FE0
:102DA000FBD11068C0F3400070470020704700005E
:102DB00010B5C068094B9847044640F20F12084905
:102DC0000120084B984704EB8404074B03EB840471
:102DD00094F82200054B984710BD00BF7D2B0000E2
:102DE0002CB400007D180000F8B30000191A000090
:102DF00008B5064B1868C3689A7A12F0010F00D123
:102E000008BD01229A7203689847F9E72816002046
:102E100010B584B0446A034653F82F0F01909B8885
:102E2000ADF8083000218DF80C1001AA2046024BA5
:102E3000984704B010BD00BF6D1100002DE9F843A4
:102E40000F46D0F824800A894B8993421FD0033261
:102E50004FF6FC701040134B98478146F0B15FB1BC
:102E600005463C46104E628961682846B047638932
:102E70001D442468002CF6D13A89494640460B4B44
:102E8000984748460A4B98470020BDE8F8834968B0
:102E90004046064B98470020BDE8F8834FF0FF30CE
:102EA000BDE8F883C558000053A100007910000068
:102EB000715700002DE9F84306461B4FDFF8789064
:102EC000DFF868800BE0002211462846174B984730
:102ED000BDE8F8833369314620469847E8B9756AFA
:102EE0002846B84781B2E1B100220320C847044612
:102EF0000028E8D0428941682846C047636898891D
:102F00000B4B9847B0F5006FE4D040F606039842AB
:102F1000E0D02046074B9847E1E72046054B98470D
:102F2000DDE7BDE8F88300BFE5100000B510000044
:102F30003D2F0000215D0000895D0000030A43EA87
:102F4000002080B27047030A43EA002080B2704735
:102F5000030E43EA0063020202F47F021343000AF5
:102F600000F47F401843704708B5014B984708BDEF
:102F7000512F0000037B8B4203D001730023437366
:102F80004383704730B44369048B651C0583234435
:102F900083F8F0104369018B4C1C04830B4483F8C5
:102FA000F02030BC704710B44369028B541C04837A
:102FB000134483F8F0105DF8044B704710B4436974
:102FC000028B541C048313440A0A83F8F0204369DB
:102FD000028B541C0483134483F8F0105DF8044BF7
:102FE000704710B44369028B541C048313440A0EC7
:102FF00083F8F0204369028B541C048313440A0CA9
:1030000083F8F0204369028B541C048313440A0A9A
:1030100083F8F0204369028B541C0483134483F823
:10302000F0105DF8044B704710B550B1014643698C
:10303000028B501C08831344FF2283F8F0200024E5
:103040000DE0094B40F2E76208490948094CA047E6
:10305000FEE74A69581C0883134483F8F0400B8B41
:10306000432BF6D910BD00BF40B4000064B400008B
:1030700088B4000079A100002DE9F041002800F09B
:103080009F800C4615460646002900F0A1800022CC
:103090004FF49A711046564B98472061002800F073
:1030A0009F80637B1BB9534A136801331360514BF4
:1030B000196821605048514B984723695A686261EA
:1030C0000123137062695370636996F82E209A7019
:1030D00063690027DF70D4F814802068484B984754
:1030E000C8F8040063691F725F7263699F72DF72C0
:1030F00063691F735F739F73DF73082D08D0042DFE
:1031000006D0032D07D1237B043BDBB2012B02D871
:1031100063697268DA60626900231374537493748C
:10312000D3746269137553759375D3756269137699
:1031300053769376D37606F12F019C46626996F812
:103140002EE09FB2BE458CBF0F7867461A441777B2
:1031500001330131102BF1D10023194662691A4461
:1031600082F82C100133402BF8D1002319466269F4
:103170001A4482F86C100133802BF8D16269002365
:10318000632182F8EC106FF07D0082F8ED0053208F
:1031900082F8EE0082F8EF10238362691A4482F805
:1031A000F0300133442BF8D1012235212046154B54
:1031B000984729462046144B98470020BDE8F081E7
:1031C000124B4FF4D162124912480C4CA047FEE753
:1031D0000E4B40F2896210490E48084CA047FEE7AA
:1031E0000E480F4B98474FF0FF30BDE8F08100BF0D
:1031F000895D0000000000201CB5000079A10000DE
:10320000512F0000852F0000A72F000040B40000C0
:10321000B0B4000088B40000D0B40000F0B40000E6
:1032200061A2000010B540B10446006908B1074B27
:10323000984700232361636110BD054B40F2D362C0
:1032400004490548054CA047FEE700BF215D00008A
:1032500040B4000034B5000088B4000079A100003B
:1032600070B582B00646846A2748284B98470421E7
:103270002046274B9847032221463046254B984746
:103280000546002839D1022239212046224B984791
:10329000B18D2046214B98472046214B9847218BE2
:1032A000F03189B220691F4B984721696068009608
:1032B00043231D4A1D4EB04720461D4B98471D48CD
:1032C000124B9847617B0131C9B26173092918D843
:1032D000C1EB411301EB8301C90089B201F2F31381
:1032E000154A82FB0302DB17C3EB621363831348A7
:1032F000134B9847284602B070BD1248034B9847BD
:10330000E0E742F21071E9E754B5000061A2000065
:10331000752F000079300000852F0000BD2F0000C0
:1033200029300000C55E000038C40000498D00004F
:103330002532000064B50000D34D6210ACB500002A
:1033400079A100007CB500002DE9F04182B006466D
:10335000846A3648364B984700236362062120462C
:10336000344B9847012221463046334B9847054657
:10337000002856D131482E4FB84702223921204625
:10338000DFF8F480C047B18D20462D4B98470422CA
:1033900037212046C04701212046DFF8E080C047A2
:1033A00003212046C0471C212046C0470621204655
:1033B000C0472046234B98472348B847218BF0311C
:1033C00089B22069214B98472148B8472169606834
:1033D000009643231F4A204EB0472048B847204656
:1033E0001F4B98471F48B847617B0131C9B26173D1
:1033F00005299ABF4FF47A7303FA01F14EF6602162
:1034000089B201F2F313184A82FB0302DB17C3EB04
:10341000621363831548164B9847284602B0BDE8EF
:10342000F0811448024B9847DEE700BFDCB500008E
:1034300061A20000752F000079300000ECB500009B
:10344000BD2F0000293000000CB60000C55E000052
:1034500028B6000038C40000498D000070B6000096
:103460002532000090B60000D34D6210DCB600009B
:1034700079A10000ACB60000852F0000A72F000046
:103480002DE9F04383B00546846A90F8373090F810
:10349000362090F83810009101463A483A4EB0472D
:1034A00001212046394B9847032221462846384BB4
:1034B00098478146002861D1022239212046354FA4
:1034C000B847A98D2046344B984704223221204624
:1034D000B847606A314EB04701462046DFF8EC80BD
:1034E000C047042236212046B847206AB04701462B
:1034F0002046C047042237212046B84701212046F4
:10350000274FB84703212046B8471C212046B8471B
:1035100006212046B8472046224B9847218BF031A0
:1035200089B22069204B9847216960680095432340
:103530001E4A1F4DA84720461E4B98471E481F4B4A
:103540009847617B0131C9B2617305299ABF4FF475
:103550007A7303FA01F14EF6602189B201F2F31396
:10356000174A82FB0302DB17C3EB62136383154820
:10357000054B9847484603B0BDE8F08312480F4B0F
:103580009847DEE70CB7000079A10000752F000016
:1035900079300000852F0000BD2F0000692F00004A
:1035A000A72F000029300000C55E000038C40000CD
:1035B000498D0000253200002CB7000061A20000F8
:1035C000D34D621074B7000044B70000E32F000031
:1035D000F0B583B00646846A2D482E4B98470321E8
:1035E00020462D4B98470322214630462B4B9847C7
:1035F0000546002845D1022239212046284FB847E8
:103600004FF410712046274B984704223221204660
:10361000B847606A244B984701462046234B984799
:103620002046234B9847218BF03189B22069214BEA
:10363000984721696068009643231F4A1F4EB04790
:1036400020461F4B98471F48124B9847617B01311A
:10365000C9B26173092918D8C1EB411301EB830189
:10366000C90089B201F2F313174A82FB0302DB1788
:10367000C3EB621363831548154B9847284603B084
:10368000F0BD1448034B9847E0E742F21071E9E7B8
:10369000A4B7000061A20000752F0000793000007F
:1036A000852F0000BD2F0000692F0000E32F0000D0
:1036B00029300000C55E000038C40000498D0000BC
:1036C00025320000B4B70000D34D6210FCB70000F3
:1036D00079A10000CCB7000070B50546846A90F867
:1036E000373090F8362001460E480F4EB04708217B
:1036F00020460E4B9847002204F1240128460C4B2B
:10370000984750B9637B01336373012363834FF49C
:10371000FA710848044B984770BD0748074B984713
:10372000F0E700BF2CB8000079A10000752F000061
:103730004592000070B8000048B8000061A2000087
:10374000F0B585B0002800F085800546846A002C1D
:1037500000F0888090F8373090F8362090F83810D4
:10376000009101464E484F4EB047616BB1F1FF3FAB
:1037700018D04D48B047626B02F11E034B49A1FBC4
:1037800003135B094FF6FF718B4228BF0B469BB2B8
:10379000002B6FD0A3834FF47A7101FB02F14448F0
:1037A000404B9847A16BB1F1FF3F19D041483D4BC9
:1037B0009847A26B02F11E033C49A1FB03135B096E
:1037C0004FF6FF718B4228BF0B469BB2002B54D0A3
:1037D000E3834FF47A7101FB02F13548314B98478E
:1037E000E38BA28B9A4202D30BB10023A383A37B6A
:1037F000002B45D0A36A0393E36A02932BB9636A53
:10380000039A134043F080730293264656F8241F10
:103810002948244FB84731462846284B984704AEDC
:1038200056F8041D2648B84731462846254B984788
:1038300004AE56F8081D2448B84731462846234BA5
:1038400098472846224B98470A212046214B984703
:1038500005B0F0BD204B40F2A33220492048114C66
:10386000A047FEE71C4B40F2A5321E491C480D4CF8
:10387000A047FEE70123A3838DE70123E383A8E7A5
:1038800094F8243013F0800F02D1FF230393B3E7A1
:10389000BF2B8CBF6FF07F434FF6FF730393ABE7F3
:1038A000D4B8000079A10000F4B8000089888888A5
:1038B0001CB9000048B9000070B90000755A00003A
:1038C0008CB90000655B0000A8B90000595B0000DE
:1038D0007D5B0000752F000040B40000A0B8000020
:1038E00088B40000BCB800002DE9F04F8DB08146CF
:1038F0009346826A0492DBF8045059781A78BDF82E
:1039000058000290D87801909B7800930B46594656
:1039100059485A4CA047BBF80A105948A047BBF871
:1039200008105848A047BBF80A302B2B20D929781B
:10393000022921D199F82E7067B399F82F20287F9A
:10394000824225D109F1300605F11D040123DAB2C6
:10395000BA421FD2194616F8012B14F8010B013395
:103960008242F4D000900B464748444CA04706E002
:103970004648474B984702E04648404B984700234B
:10398000049A93605846444B98470DB0BDE8F08FB9
:103990000021E7E76868414B9847049C23689842F8
:1039A00008D068683D4B9847226801463C48334B35
:1039B0009847E4E73B4B00221A605A601A81BBF833
:1039C0000A302B2B40F25982DBF80430049A9360C2
:1039D000BBF808A000230693F024CDF82490CDF87E
:1039E00014B0059A002A00F0438253899C42C0F02B
:1039F000FD82E41AA4B2AAEB030A1FFA8AFA12683B
:103A0000002A00F038825389A342F2D99346DBF8AA
:103A10000430079322461B5DFF2B02D0A24500F223
:103A2000A380204B1B78002B00F010821E4B1968DE
:103A300000221C4B1A70012940F0F2811B48144BE4
:103A400098474FF0EC0A6C24CBE7002306934FF025
:103A50006C0A2C24C5E7DBF80020002A00F00C8358
:103A60005268177889E0013CA4B20027023417FAA3
:103A700084F4A4B255E000BFC4B9000079A10000ED
:103A800004BA000018BA000080BA000030BA000082
:103A900061A2000058BA0000215D0000692F0000FB
:103AA000BCBA0000F8820020048300207CBB000028
:103AB000042F40F0E1803D460626A31C17FA83F749
:103AC000BBB2089300230B93B94B9B5D43BB0234FD
:103AD000A4B2B74F3744B74B03EB8608DFF8009327
:103AE000032D94BF2A460422234692B20BA95846BE
:103AF000C847042D40F2768115F0030F40F0508145
:103B000001233B700B98AC4B984748F8040F043DD9
:103B1000EDB20434A4B2013617F8013F002BDFD018
:103B2000089CBBF80A30A34211D8E41AA4B2AAEB4D
:103B3000030A1FFA8AFA5445BFF473AFBAF1000FB3
:103B40003FF46FAFDBF800B0DBF804300793BBF154
:103B5000000F3FF466AF2246079B1B5DFF2B3FF42F
:103B600060AFA2457FF65DAF611CBBF80A008142E1
:103B7000BFF671AF07990A4457783B2B00F20B81CF
:103B800001A252F823F000BF673A0000B13A0000EA
:103B9000973D00008B3C0000973D0000973D0000E2
:103BA000A73C0000973D0000973D0000973D0000B6
:103BB000973D0000973D0000973D0000973D0000B5
:103BC000973D0000973D0000973D0000973D0000A5
:103BD000973D0000973D0000973D0000973D000095
:103BE000973D0000973D0000973D0000973D000085
:103BF000973D0000973D0000973D0000973D000075
:103C0000973D0000973D0000973D0000973D000064
:103C1000973D0000973D0000973D0000973D000054
:103C2000973D0000973D0000973D0000973D000044
:103C3000973D0000973D0000973D0000973D000034
:103C4000973D0000973D0000973D0000973D000024
:103C5000973D0000EF3C00000B3D0000273D0000B9
:103C6000433D0000973D0000973D0000973D000058
:103C70005F3D00007B3D0000504B40F27C525049BC
:103C80005048514CA047FEE70027032F02D90726D2
:103C9000042512E7494B40F281524C4949484A4CAD
:103CA000A047FEE7002717F0030F0FD13D46082F6E
:103CB00028BF0825BD4211D8A31C17FA83F7BBB251
:103CC0000893002D00F0AA800826FBE63B4B40F24B
:103CD00086523F493B483C4CA047FEE7374B40F2F9
:103CE00089523A493748384CA047FEE70027042F4D
:103CF00002D13D460326E0E6304B40F28D5230497A
:103D00003048314CA047FEE70027012F02D13D4645
:103D10000026D2E6294B40F291522E4929482A4CDE
:103D2000A047FEE70027012F02D13D460126C4E649
:103D3000224B40F2955227492248234CA047FEE7E8
:103D40000027042F02D13D460226B6E61B4B40F267
:103D500099521B491B481C4CA047FEE70027042F23
:103D600002D13D460426A8E6144B40F29D52144968
:103D70001448154CA047FEE70027042F02D13D460A
:103D800005269AE60D4B40F2A1520D490D480E4C06
:103D9000A047FEE7002719460F480B4B984765E6FA
:103DA000064B40F2B4520D490648074CA047FEE7C7
:103DB000F882002000830020512F000040B4000052
:103DC000F8BA000088B4000079A1000004BB00002C
:103DD00018BB000028BB000034BB000054BB00002F
:103DE000AD600000042D0CD0012D0FD19DF82C30BA
:103DF0000B9301227F4B9A550B9A7F4B43F8262059
:103E00008EE60B987D4B98470B90F2E77C4B40F287
:103E1000BE527C497C487D4CA047FEE7089C80E66A
:103E2000022908D17A487B4B9847002306934FF02C
:103E30006C0A2C24D5E5032905D17748754B9847A2
:103E400001230693FDE57548704B9847069B002BB0
:103E50007FF4FBADDDF82490DDF814B070486D4BB5
:103E60009847644B5B7863B96E486A4B984786E520
:103E7000DDF814B001E0DDF814B06B48654B9847ED
:103E80007DE55D4B1B79052B49D16848614B98470F
:103E9000049B1B7B012B39D1D9F828400023A36256
:103EA000E362544BDB7813B1534BDB682363514B14
:103EB0001B790BB3504B1B6963634E4B5B79FBB1B2
:103EC0004D4B5B69A363A3681B696362494B9B7994
:103ED000CBB1494B9869564B9847A0620123A37315
:103EE000444BDB7923B1444BD869514B9847E0628E
:103EF0004846504B984742E5236B5B086363DCE719
:103F0000236BA363DFE70023A373E9E7033BDBB283
:103F1000022B3FF634AD4846474B98472FE5062B1A
:103F200030D1049B1A7BD31EDBB2022B02D9012AAB
:103F30007FF425AD4148374B9847D9F8285099F878
:103F4000373099F8362099F83810009149463C48A6
:103F50002E4CA04748463B4B98473B4C2146484691
:103F60003A4B984721464846394B984721464846A0
:103F7000384B98470C212846374B98474846374BD3
:103F80009847FCE4022B7FF4FAAC049B1B7B062BC6
:103F90007FF4F5AC32481F4B98470023049A5383B3
:103FA000D9F8284099F8373099F8362099F8381020
:103FB000009149462B48154DA8470E4B9B7883B17D
:103FC0000D4B98681A4B9847014620622648A8472F
:103FD000A368196961622548A8474846244B984759
:103FE000CDE449462348094B9847C8E4DDF814B0AE
:103FF0000DE500BFF882002004830020692F000037
:1040000040B4000068BB000088B4000079A1000043
:1040100094BB000061A20000ACBB0000CCBB000060
:1040200024BC000048BC0000ECBB000074BC0000D5
:10403000512F0000D93600004137000088BC000035
:104040009CBC0000B95B00003CC40000755A000035
:10405000595B0000655B0000752F000049330000CC
:10406000C0BC0000ECBC000014BD000038BD000066
:104070008134000060BD00003B2B3FF68BAE01A2F7
:1040800052F823F0673A0000793C0000953D0000AB
:10409000893C0000953D0000953D0000A53C0000D6
:1040A000953D0000953D0000953D0000953D0000C8
:1040B000953D0000953D0000953D0000953D0000B8
:1040C000953D0000953D0000953D0000953D0000A8
:1040D000953D0000953D0000953D0000953D000098
:1040E000953D0000953D0000953D0000953D000088
:1040F000953D0000953D0000953D0000953D000078
:10410000953D0000953D0000953D0000953D000067
:10411000953D0000953D0000953D0000953D000057
:10412000953D0000953D0000953D0000953D000047
:10413000953D0000953D0000953D0000953D000037
:10414000953D0000953D0000953D0000953D000027
:10415000ED3C0000093D0000253D0000413D000010
:10416000953D0000953D0000953D00005D3D00003F
:10417000793D000070B582B058B10C4605462E4816
:104180002E4B9847AB6A13B11B7B082B09D002B0AA
:1041900070BD2B4B40F226322A492B482B4CA047AE
:1041A000FEE721682A48294B9847AB6A22685B6A78
:1041B0009A42ECD12748214EB047AC6A2648B04716
:1041C0000C212046254B9847042221462846244BA3
:1041D000984700282BD1042232212046214B9847B2
:1041E000606A214B984701462046204B984720465D
:1041F0001F4B9847218BF03189B220691D4B98479E
:1042000021696068009543231B4A1C4DA84720463E
:104210001B4B98471B48B047637B013363731423E0
:10422000638342F210711848084B9847AFE717486C
:10423000024B9847F0E700BF34BE000061A20000C7
:1042400040B4000094BD000088B4000079A10000D3
:1042500048BE00007CBE0000C0BE0000752F0000FC
:1042600079300000852F0000692F0000E32F000047
:1042700029300000C55E000038C40000498D0000F0
:1042800025320000D0BE00001CBF0000ECBE0000C4
:1042900070B582B00646846A2848294B98470521A4
:1042A0002046284B9847032221463046264B984704
:1042B000054600283AD1022239212046234B98474F
:1042C000B18D2046224B98472046224B9847218BA0
:1042D000F03189B22069204B9847216960680096C7
:1042E000432304F120021D4EB04720461C4B984743
:1042F0001C48134B9847617B0131C9B2617309298E
:1043000018D8C1EB411301EB8301090189B201F215
:10431000F313154A82FB0302DB17C3EB62136383BB
:104320001248134B9847284602B070BD1148044B01
:104330009847E0E744F62061E9E700BF4CBF000082
:1043400061A20000752F000079300000852F000069
:10435000BD2F000029300000C55E0000498D00001F
:10436000253200005CBF0000D34D6210A0BF0000EA
:1043700079A1000074BF00002DE9F041224B1C68B8
:104380002248234B9847002C3BD0224F204D224EF1
:104390000FE02248A847D4F828802148A84798F879
:1043A0000C3003F0FB02012A25D00A2B23D024680D
:1043B0003CB3A36A002BFAD0DA8B511ED983012AB1
:1043C000E7D0A26A938B591E9183012BEFD1384617
:1043D000A847D4F828803046A84798F80C3003F056
:1043E000FB02012A01D00A2BE1D10E48A847204642
:1043F0000D4B9847DBE70D48A84720460C4B9847E4
:10440000D5E7BDE8F08100BFF0920020D0BF0000EA
:1044100061A2000038C0000058C00000E4BF0000E6
:1044200004C000006CC000009142000018C00000F1
:1044300061320000F0B583B00546846A2F48304BE6
:104440009847002120462F4B984700232362636240
:10445000A362E362A36363632363072221462846C2
:10446000294B98470646002841D12046274B9847BC
:10447000218BF03189B22069254B9847216960680A
:104480000095432304F12002224FB8472046224BD7
:10449000984722481A4B9847617B0131C9B2617332
:1044A000092928D8C1EB411301EB8301C90089B266
:1044B00001F2F3131A4A82FB0302DB17C3EB621308
:1044C00063831848184B98472846184B9847184C50
:1044D00021462846174B984721462846164B9847B1
:1044E00021462846154B9847304603B0F0BD144886
:1044F000034B9847D0E742F21071D9E78CC0000017
:1045000061A20000752F0000793000002930000002
:10451000C55E0000498D0000253200009CC00000EF
:10452000D34D6210F0C0000079A10000B95B00001B
:104530003CC40000755A0000595B0000655B000038
:10454000C0C000002DE9F0413A4B1C68002C6FD030
:10455000394F3A4D3A4E04E0012B0BD02468002C21
:1045600066D0A26A002AF9D0538B012BF4D9013B03
:104570005383F3E7002353833846A847D4F82880B1
:104580003046A84798F80C300C2B14D0062B12D0CC
:10459000012B16D0082B27D0052B30D0042B34D07C
:1045A000032BDBD198F80D30012B204694BF254B0F
:1045B000254B9847D2E72548A8472046224B9847E5
:1045C000CCE72348A84798F80D30052B03D82046A0
:1045D000204B9847C2E72048A84720461F4B9847E2
:1045E0002046194B9847B9E71D48A84798F80D3061
:1045F000012B204694BF1B4B1B4B9847AEE71B4833
:10460000A84720461A4B9847A8E71A48A84798F8A1
:104610000D30082B03D82046174B98479EE71748C4
:10462000A84720460D4B98472046074B984795E7EB
:10463000BDE8F081F092002020C1000061A20000DE
:1046400044C10000D13500004933000054C10000CE
:104650007CC1000081340000B0C10000354400007E
:10466000E4C10000D93600004137000014C2000048
:104670009142000048C20000613200007CC200008C
:1046800010B5A8B1846A90F8352022F0080280F8AD
:1046900035200B480B4B98474CB1606818B10A4B5A
:1046A00098470023636000212046084B984710BDBF
:1046B000074B40F2CC4207490748084CA047FEE7A9
:1046C000C0C2000061A20000F58E0000752F00003E
:1046D00040B40000A4C2000088B4000079A100002A
:1046E00070B582B0002852D00446856A90F8373001
:1046F00090F8362090F83810009101463D483E4E23
:10470000B04794F8353023F0080284F8352013F0D0
:10471000200F44D0A38DB3F5107F46D3002D4AD08F
:104720003648374B9847686808B1364B98473C2263
:1047300000212846344B9847344B9847686000283E
:104740004CD0037A43F020030372314E44223146A9
:104750006868304B98474322314668682E4B98472B
:1047600022462E4968682E4B98472E48244B98477E
:1047700020462D4B98470346002835D194F8352024
:1047800042F0080284F83520184602B070BD274B6D
:1047900040F27A2226492748174CA047FEE72648D0
:1047A000174B98476FF00D03EEE72448144B9847DA
:1047B0004FF0FF33E8E72248114B98473C20214B4C
:1047C0009847054620B1A0621F480B4B9847AEE7BB
:1047D0001E480B4B98474FF0FF33D5E71C48084B5A
:1047E00098474FF0FF33CFE720461A4B98474FF0DA
:1047F000FF33C9E7CCC2000079A10000BCC30000B0
:1048000061A20000F58E000069A10000318F000058
:104810003CC400006D8C00008D8E0000E938000063
:10482000ED8E00000CC400004933000040B40000CD
:1048300094BD000088B40000ECC200000CC300006E
:104840004CC30000C55800009CC3000074C30000A6
:10485000E8C300008146000008B5064B9847064BA8
:104860009847064B9847064B9847064B9847064B88
:10487000984708BD3D57000099590000715A000043
:10488000798A0000C1610000398900002DE9F043F8
:1048900085B0804689461546002224210120224BFE
:1048A000984700283DD00646D8F80470446884F83C
:1048B00000906570002525716571A571E571D0F8CE
:1048C00004C0D8F80430D3F800E058689968D3F8E9
:1048D0000C80CCF808E0CCF80C00CCF81010CCF828
:1048E0001480D3F810E058699969CCF818E0CCF836
:1048F0001C00CCF82010A570E570718920460B4B88
:1049000098476080FB6804AA42F8043D01230193A4
:104910000095FF2329463046054CA0473046054BFD
:10492000984705B0BDE8F083895D0000C14B0000E9
:10493000514F0000215D00002DE9F04385B006468F
:10494000884647683C7804F00F04A40065422DB205
:104950002946454B9847A0B93389032B11D9736871
:104960001B78082B6FD1414B186800F0F0094146C5
:104970003F4B984758B9B9F1E00F08D03389072B5E
:1049800009D830463B4B984705B0BDE8F083304628
:10499000384B9847F8E73046374B984770B924B200
:1049A00022213046304B984730B3214630462E4BBB
:1049B000984738B130462F4B9847E5E730462D4BA6
:1049C0009847E1E70022318902202C4B9847814625
:1049D0000028EFD031462A4B98470028EAD1D9F871
:1049E000047029464846204B98470028E2D13046BB
:1049F000204B98474E4606E06FF0210130461A4B97
:104A000098470028D6D17268184B1B68FB601D4B75
:104A10001B683B610023137053884FF6F6718B427D
:104A20008CBF093308335380FF233B720023BB72D2
:104A3000FB7214213846144B984778812146304642
:104A4000094B984718B130460A4B98479CE7CDF878
:104A500008800123019300220092FF23034930467E
:104A60000A4CA047EFE700BF8D5C000034830020B4
:104A7000914F0000215D0000D14B0000895D0000D6
:104A8000AD5F00002C830020C14B0000554E00009C
:104A900008B50A460321014B984708BD8D48000020
:104AA00008B50A460B21014B984708BD8D48000008
:104AB00010B483B00023ADF8063010F0010407D025
:104AC00099422ADD431C02788DF80720013900E065
:104AD000034601291FDD002233F8020B024402398C
:104AE0000129F9DC0029C4BF1B788DF80630BDF818
:104AF0000600024490B200EB124290B200EB12406A
:104B000024B103029BB2C0F30720184380B203B064
:104B10005DF8044B70470022E4E70129C8BF034653
:104B2000D9DCBDF80600ECE72DE9F0478A4691464E
:104B3000984600283ED00546002634461E4F01E028
:104B40002D689DB169896868B8470444A0B200EB3C
:104B500014446B8913F0010FF2D0C6F10106F6B2CE
:104B600023029BB2C4F307241C43E9E726B12302C6
:104B70009BB2C4F307241C43DAF80020D9F80030B4
:104B8000180C10FA83F010FA82F000EB1240044483
:104B900040460A4DA8470444BDF82000A8472044D9
:104BA00084B204EB1044A0B200EB1440C04380B2C6
:104BB000BDE8F0870024DFE7B14A00003D2F000088
:104BC00008B5024B9847C04380B208BDB14A000007
:104BD000F8B518B3054600263446114F01E02D689C
:104BE0009DB169896868B847204484B204EB1044D9
:104BF0006B8913F0010FF2D0C6F10106F6B2230261
:104C00009BB2C4F307241C43E9E726B123029BB2FD
:104C1000C4F307241C43E04380B2F8BD0024FAE744
:104C2000B14A00000E4B1B6873B90E4B1B6833B1C1
:104C300093F8352002F00102002A08BF002318462D
:104C400070471B68002BF0D093F8352012F0010F4D
:104C5000F7D0026859684A4099680A42F1D1EEE7F4
:104C6000F0920020F49200202DE9F84F0646D0F88B
:104C7000049099F800502B09042B04D0654B9847F9
:104C80000020BDE8F88F884605F00F05AD00B9F8A3
:104C90000200614B984704467389AB4202D33389C3
:104CA000834203D230465B4B9847E9E729464846A2
:104CB0005A4B984790B921463046594B9847D9F8F6
:104CC0001020584B1A60D9F80C20574B1A604446F4
:104CD0000127DFF850B1DFF878A10BE030464D4BEB
:104CE0009847CDE7FFB1DAF80040444508BF246893
:104CF0000027D4B194F8353013F0010FF2D014F13D
:104D0000040FEFD06368002BECD0DBF80000834287
:104D100004D02146454B98470028E3D02CB1424BA4
:104D20001868C0B10AE02468DFE799F80930112B50
:104D300049D03D4B1868002850D0002441463B4BD9
:104D40009847002846D1384B1B6803F0F003E02B4E
:104D500040D0002C42D0B9F8063023F0C0039BB2FB
:104D60003BB13046324B98470646002888D0D0F8F1
:104D70000490304BC3F800802F4BC3F8009041469D
:104D800030462E4B9847002830D199F80930062B31
:104D900036D0112B26D0012B37D04146214B186835
:104DA000224B984758B91F4B1B6803F0F003E02BC8
:104DB00005D0C6F8049002213046214B9847304672
:104DC000144B984712E04D446B88B3F5884FB0D12F
:104DD0004446BEE730460F4B984751E730460D4BEF
:104DE00098474DE741463046164B98470023114AF5
:104DF0001360114A13600C4A13600A4A13603FE7BC
:104E000041463046104B9847F0E7414630460F4B3D
:104E10009847EBE7215D0000472F0000C14B0000E1
:104E2000C55E0000348300202C830020914F0000D9
:104E300009520000308300203883002049610000BF
:104E4000914A00007D8A00000D760000394900007B
:104E5000F09200202DE9F04F87B0054602919DF8B1
:104E600040809DF844B0129E0192002A57D09A4685
:104E700017461421324B984700285DD16C6884F89E
:104E800008A084F809B03B6823619AB203924FEA04
:104E900013494523237084F801804AEA0B2A4FEA1C
:104EA000082848EA03080AEB080B2889254FB84769
:104EB000824660800023A371E371DFF89080B8F828
:104EC0000000B847A080B8F800300133A8F80030DF
:104ED000029B0BB11B6803BB7368E360E2681BFABB
:104EE00082F303EB1243039A13444B449A44504415
:104EF0001FFA80FA0AEB104000EB1040C0436081BB
:104F0000B38D13B12A899A4210D87369019A294640
:104F10003046984707B0BDE8F08FE360DEE74368AE
:104F20001B6906AA42F8043D0192E9E7019A31465D
:104F30002846054B9847EDE76FF00100EAE700BF10
:104F40008D5C00003D2F0000655500002C160020F0
:104F5000F0B585B005460E4614461F4610460A4B6E
:104F6000984770B102909DF82C3001939DF828303D
:104F700000933B46224631462846044CA04705B0E4
:104F8000F0BD6FF00300FAE7254C0000554E00001D
:104F9000431E13F1030F12D891F8353013F0020FAE
:104FA0000FD04B6898420ED08A68434013420CD110
:104FB000D24332EA00030CBF0120002070470120D9
:104FC00070470020704700207047002070470000A5
:104FD0002DE9F04F85B0019103680DF1100C4CF8EC
:104FE000043D0C464FF00008C146274F02F1010E68
:104FF0004FF02E0B66469CF8003048469A4600E07B
:105000002846A7FB0A31C90801EB8103AAEB430339
:10501000451CEDB230330DF1100A82440AF8083C09
:1050200001F0FF0A0029EBD186F800900CF1010C89
:10503000ADB108F10101424521DD02AB1D18631E2F
:1050400020449E1C15F8014903F8014F984208D0EE
:1050500001317145F5D1002005B0BDE8F08F414622
:10506000264601F101088A420BDD741C86F800B067
:1050700004AB9C45BED1002333700198ECE70020BF
:10508000EAE70020E8E700BFCDCCCCCC2DE9F04723
:1050900081468A4645686B689A8822B30024D9F80D
:1050A00004606EB1DFF890801F4F73681D68304652
:1050B000C0470444A4B23046B8472E46002DF4D170
:1050C0001A4B1B68994529D0D9F80030CAF800302E
:1050D00049460520164B9847144A93881B1B93801A
:1050E0002046BDE8F0871B6843606A68034653F8B2
:1050F000081F5E689C68D868116056609460D06034
:1051000019691161012128460A4B984728460A4B24
:10511000984784B22846044B9847C0E7D9F8002046
:10512000024B1A60D4E700BF215D0000301600205A
:10513000595A0000A14A0000255F00002DE9F843FC
:10514000054688460026194FDFF8649022E00134B6
:10515000B8B193F81FC0C27F944598BF18461A682B
:105160008AB1194613465A697245F0D1D5F810C074
:105170009A696245EBD1B3F80CC0AA889445E6D190
:10518000EDE71846EBE708B1C8470644464509DA9B
:10519000012C07DD3B682BB1D5F80CE0002421463B
:1051A0002046E0E73046BDE8F88300BF3016002017
:1051B0008D50000010B50446406908B1034B984774
:1051C00021460620024B984710BD00BF215D00001C
:1051D000595A00000A4B186888B170B50024094E6E
:1051E00004E005682146B047284638B1C37F002B4C
:1051F000F7D0013BC37704460068F6E770BD7047FF
:10520000301600208D5000002DE9F04F83B0074686
:105210004668337803F00F03052B22D1F088A04CA9
:10522000A04783467088A047019096F800A03846B2
:105230009C4B984780469C4B9B8803440A2B06DC7A
:10524000994B1C68002C79D0F268002514E00146C7
:105250003046964B984720B1934B9B8843440A2B8A
:10526000EEDD3846924B98474FF0000801E1236885
:105270002546002B62D01C4663699342F7D13369FF
:10528000A1699942F3D1A189B3889942EFD1002C49
:1052900053D0F088824B9847C0F30C00002800F0F0
:1052A0008480814B9A889044A3F80480F38813F09B
:1052B000200F0CD1A37F43F00103A3770AF00F0A5C
:1052C000019BA3EB8A0909EBCB0BA4F81CB07E6809
:1052D0007088DFF8CC91C84796F8008008F00F0876
:1052E000A0EB88081FFA88F8F088C847C0F30C00C4
:1052F000C000D7F804C000238CF800308CF80130CF
:105300008CF802308CF80330ACF8040080441FFAAB
:1053100088F8ACF806806268002A00F09A8053682A
:1053200099888842C0F0AD8000F09780DA88824288
:1053300000F293804FF0010E78E02C4605205D4B83
:105340009847814618B32022002148465A4B984777
:10535000032389F81F30544B1A68C9F80020C3F89A
:10536000009032687568B068F168C9F80820C9F81B
:105370000C50C9F81000C9F814103269C9F8182087
:10538000B9F1000F3FF46DAF25464C4689E7414621
:105390003046464B984780453FF763AF0520454B65
:1053A000984781460028CED15BE7E0893C4B98477F
:1053B000C0F30C0000283FF474AF3268D6F804E064
:1053C000B068F168A260C4F80CE0206161613269E4
:1053D000A26166E7CCF80060002B56D0D9888142E4
:1053E0003BD89288424538D31F60A37F13F0010F4A
:1053F0003DD0BEF1000F3AD0606843689B88002B17
:1054000035D1DCF80030002B58D05B689988BCF8A7
:10541000062091422BD11A68002A4FD05268D988B1
:105420009388994223D11346F5E713461E6876B355
:10543000726891888842CDD388420ED0D688864241
:105440000BD8002BF1D0DB888B4218BF4FF0000E39
:10545000EBE74FF0010E6760C7E73846114B9847FE
:10546000114A9388181A90803846114B98474FF08C
:105470000008404603B0BDE8F08F22680A4B1A606E
:1054800056E0CCF800204FF0010E6760ADE7002B2E
:10549000E1D01F60DA88BCF804309A42E7D1A4E773
:1054A000472F0000255F0000301600203D5100000E
:1054B000215D0000115A000069A10000A38B143384
:1054C000A38347683E68234653F8082FD3F804E0C7
:1054D0009868D9683A60C7F804E0B860F9601A695A
:1054E0003A61A08B184B984778800023BB71FB7101
:1054F000BB72FB7214213846144B98477881D4F85C
:1055000004807EB16FF0130BDFF850A0DFF85090ED
:10551000776859463046D04731464046C8473E68CE
:10552000002EF5D10A4B1B689C42A6D023682B6045
:1055300021460520074B98474046074B9847044AA9
:105540009388181A908094E73D2F0000C14B00000B
:1055500030160020595A0000255F00008D5C0000C5
:10556000455F00002DE9F04F91B005460D910E9278
:105570008C8DD0F804B0BBF80600654B9847C0F39B
:105580000C03079300F400530B93B5F80890A9F1AE
:1055900014091FFA89F30593A4F114030A93002B4D
:1055A000B8BF0733C3F3CF030C93059A002A00F06A
:1055B000A980DB009BB20F9300241426DFF870A1B2
:1055C000DFF87091DFF8708152E00620D04707467F
:1055D000002800F0838001946B6800930346022248
:1055E00021460320C847039000287FD02846C047A3
:1055F0007D61484B3B6103990498474B9847361BA4
:10560000B6B25EB12D686C89B44228BF3446A4B2EC
:10561000002CDAD12D68002EF5D1344608983F4E83
:10562000B047099FF880069B03F1140080B2B04791
:1056300078800023BB723846FB721421384B9847A0
:1056400078810D9843690E9A049E314698473046FA
:10565000344B9847059A069BD31A9BB21A4605937A
:10566000079B0C990B449BB207932646002A47D010
:10567000079BC3F30C030B9A134308930A9A0599EB
:105680008A42BDBF43F4005308930F9B059B0693CA
:10569000002214210220244B98470490002833D084
:1056A0004368DBF80020DBF80470DBF80800DBF867
:1056B0000C101A605F609860D960DBF810201A61E6
:1056C000049B5B6809936B6833446B606B899E1B1A
:1056D0006E81069B002BA1D01E4694E70498114BC7
:1056E00098474FF0FF3011B0BDE8F08F39460620E3
:1056F0000E4B984704980B4B98474FF0FF30F2E75A
:105700000020F0E70020EEE74FF0FF30EBE700BFAE
:10571000472F0000B5510000455F00003D2F0000FD
:10572000C14B0000215D0000895D0000595A000056
:10573000115A00002D5C00003B5F00000A4B23F073
:1057400003030A4A13604FF47A61198000205880DD
:10575000187158185060012083F8A40FA3F8A01FF7
:10576000A3F8A21F936070473F83002038160020E3
:1057700000283FD00346204A126890423AD31E497F
:105780004868834236D270B4A3F10801002403F8BC
:10579000044C194CA468A1423CBF174CA16033F8DB
:1057A000085C5419A14210D0267976B9A0420CD0D9
:1057B00011488068844204BF0F488160505B23F821
:1057C000080C505B10448C1A448033F8060C1418F3
:1057D000A1420ED0257965B9074DAD68A94204BF35
:1057E00005498C6033F8081C115233F8083C1A4400
:1057F000508070BC704700BF3816002003314FF650
:10580000FC730B400C2B38BF0C23B3F57A6F52D8C6
:105810002B4A126882422BD829494968884227D2EC
:10582000F0B4A0F10804A41AA4B230F8085CA5F101
:105830000801091B89B299423FD318D0561937790C
:10584000DFB9555B04F108010B449BB21C49896820
:105850008E420ED0D11800260E71D5524C8020F801
:10586000083CD15AB1F57A6F01D00A445380F0BC9C
:105870007047D118124EB160ECE703F114058D4268
:10588000F5D804F108010B449BB2D1180C4DAD685A
:10589000A9423CBF0A4DA96000250D7130F8085C93
:1058A000D5524C8020F8083CD15AB1F57A6FDED041
:1058B0000A445380DBE7002070470020D7E700BF91
:1058C0003816002000285FD0F0B5034603334FF6AA
:1058D000FC741C400C2C38BF0C24B4F57A6F55D8DE
:1058E0002C4B9F6819687B1A9BB2C4F57A65AB4252
:1058F0004EDA6FF0070CA6460EE001230371254B2C
:105900009B6898422FD00830F0BD034637E003462D
:1059100035E00388AB4235DAC8180279002AF8D19D
:10592000ACEB0302CE5A32447646A242F1D314368F
:10593000B242E2D304F108021A4492B28C18002554
:10594000257105888D5263800280012303718B5A73
:10595000B3F57A6FD3D019444A808742D3D1037903
:10596000002BD2D003460B4A51688842CFD014682E
:105970001B8823441A7912B18B42F9D10B46054A90
:105980009360C0E70020F0BD002070470020F0BD0C
:105990000020F0BD381600202DE9F047194F27F000
:1059A0000307194B03F55576DFF860C00CF1140EB0
:1059B00003F55F794FF0000A15E0034619605819A6
:1059C0000132194693B29C42F7D8013CA4B204FBC1
:1059D000055304FB0574C8F800401F4404360EF15B
:1059E000020EB1450CD0B046C6F800A03CF8024B00
:1059F000002CF3D0BEF800503B4600221146DDE7F4
:105A0000BDE8F08747160020147C002040C4000049
:105A100009280DD80B4B03EB8003D3F854332BB17B
:105A20001968084A02EB8002C2F8541318467047FE
:105A300010B5054B40F2891204490548054CA047B2
:105A4000FEE700BF147C002068C400008CC4000086
:105A500088B4000079A1000039B1044B03EB800049
:105A6000D0F854330B60C0F854137047147C0020F6
:105A700070470000F8B50446002927D00D460A6893
:105A800043689A4211D0124B186858B1114F03E085
:105A9000C668B847304628B1026863689A42F7D0B2
:105AA000C068F8E70C4B1B682BB92B686360F8BD26
:105AB000DB68002BF9D0002BFAD01A68002AF7D047
:105AC00061688A4204BF2A681A60F1E70023EDE7A3
:105AD00000930020B56A00000893002070B50446CA
