:10000000F8950120F5020000F1020000F102000065
:10001000F1020000F1020000F10200000000000007
:10002000000000000000000000000000F1020000DD
:10003000F102000000000000F1020000F57D000068
:10004000F1020000F1020000F1020000F1020000E4
:10005000F1020000F1020000F1020000F1020000D4
:10006000F1020000F1020000F1020000F1020000C4
:10007000F1020000F1020000F1020000F1020000B4
:10008000F1020000F1020000F1020000F1020000A4
:10009000F1020000F1020000F1020000F102000094
:1000A000F1020000F1020000F1020000F102000084
:1000B000F1020000F1020000F1020000F102000074
:1000C000F1020000F1020000F1020000F102000064
:1000D000F1020000F1020000F1020000F102000054
:1000E000F1020000F102000000000000000000002A
:1000F0000000000031170000311E0000291E000022
:10010000211E0000B51D0000F1020000F1020000F8
:10011000F1020000F1020000F1020000F102000013
:10012000F1020000F1020000F1020000F102000003
:10013000F1020000F1020000F1020000F1020000F3
:10014000F1020000F1020000F1020000F1020000E3
:10015000F1020000F1020000F1020000F1020000D3
:10016000F1020000F1020000F1020000F1020000C3
:10017000F1020000F1020000000000000000000099
:10018000F1020000F1020000F1020000F1020000A3
:10019000A1120000F1020000F1020000F1020000D3
:1001A000F1020000F1020000F1020000F102000083
:1001B000F1020000F1020000F1020000F102000073
:1001C000F1020000F1020000F1020000F102000063
:1001D000F1020000F1020000F1020000F102000053
:1001E000F1020000F1020000F10200001D200000F9
:1001F000F1020000F1020000F1020000F102000033
:10020000F1020000F1020000F1020000F102000022
:10021000F1020000F1020000F1020000F102000012
:10022000F1020000F1020000F1020000F102000002
:10023000F1020000F1020000F1020000F1020000F2
:10024000F1020000F1020000F1020000F1020000E2
:10025000F1020000F1020000F1020000F1020000D2
:10026000F102000010B5054C237833B9044B13B1EB
:100270000448AFF300800123237010BD80000020EC
:1002800000000000BCAA00000C4B43B10C480D4913
:1002900010B5AFF300800C48036823B910BD0A48BD
:1002A000036833B97047094B002BF7D0BDE8104005
:1002B0001847064B002BF5D0184700BF0000000080
:1002C000BCAA000084000020BCAA000000000000BE
:1002D00010B5044B9847044B9847044BBDE81040B9
:1002E000184700BF35060000C90A000065840000F9
:1002F000FEE7000008B5144A144B9A4218D1144B7B
:10030000144A002193421CD3134A144B22F07F025B
:100310009A60D3F8882042F47002C3F88820BFF3B3
:100320004F8FBFF36F8F0E4B98470E4B9847FEE7EA
:100330000D49043A8B42E2D252F8040F43F8040B01
:10034000F8E743F8041BDDE7BCAA0000000000202A
:1003500080000020F49500200000000000ED00E087
:1003600085840000658100007400002030B54A1CBF
:10037000C4B2C0F34712164804F01F0300EBC210CA
:1003800007D1184490F8403003F0FE0380F8403065
:1003900030BDC5185B0895F8402002F0FE021844F5
:1003A00042F0010285F8402090F8303014F0010F3F
:1003B00019BF03F00F0343EA011101F00F0103F02D
:1003C000F00314BFC9B2194380F8301030BD00BF2C
:1003D0000080004100F01F024009C00100F182408E
:1003E00000F500400123934083609AB21B0C42F059
:1003F000804243F04043826283627047054B422251
:10040000C3F89C20C3F88C20034A536943F48053FB
:1004100053617047001C00400008004010B5054CB7
:1004200005495120A047234604495020BDE810400B
:10043000184700BF6D030000030051000300500087
:1004400013B5084B084C984700230093074A084906
:1004500008484FF48073A047074B02B0BDE8104036
:10046000184700BFFD030000710F00009C00002032
:1004700000300040FC8100201D04000010B5054C38
:1004800005495B20A047234604495C20BDE8104095
:10049000184700BF6D03000002005B0002005C0013
:1004A000054B4222C3F8A020C3F88C20034A5369AD
:1004B00043F4005353617047001C004000080040A3
:1004C00010B5054B9847054B05490648002298474B
:1004D000054BBDE810401847A1040000B51000000E
:1004E00000340040F08100207D04000070B50B4C0A
:1004F0000B4D94F856300B4903F0FB0384F856304B
:100500001620A84794F85730074903F0FB0384F8F6
:10051000573017202B46BDE8704018470080004137
:100520006D0300000200160002001700064B402277
:10053000C3F8E0204222C3F88C20044A936943F4B4
:1005400080639361704700BF001C004000080040BA
:1005500010B5054B9847054B054906489847064B8B
:10056000BDE81040184700BF2D050000410C0000F9
:10057000004001414C820020ED04000010B51149FB
:10058000114C4B20A04711494C20A04710490D2089
:10059000A04710490C20A0470F495420A0470F49FD
:1005A0000F20A0470E491220A0470E491320A04754
:1005B0000D490E20A04723460C491120BDE81040EC
:1005C000184700BF0B004B006D0300000B004C00F0
:1005D0000B000D000B000C000B0054000B000F0073
:1005E0000B0012000B0013000B000E000B0011009B
:1005F000044B1A6942F480421A61DA6942F004023B
:10060000DA6170470008004010B5054B9847054B6C
:10061000054906489847064BBDE81040184700BFFB
:10062000F1050000790C0000000800426C820020F7
:100630007D0500002DE9F74FDC4BDD4C9847DD4987
:1006400010234B610420A04791F84430202203F08E
:10065000FE0381F8443005204A610192A04791F8D9
:10066000453003F0FE0381F8453040234B610620FE
:100670000093A04791F846004FF0800B00F0FE0079
:1006800081F84600C1F814B00720A04791F8470050
:100690004FF4807A00F0FE0081F84700C1F814A002
:1006A0000820A04791F848004FF4007900F0FE00C0
:1006B00081F84800C1F814900920A04791F849003A
:1006C0004FF4806800F0FE0081F84900C1F8148002
:1006D0000A20A04791F84A004FF4006700F0FE009E
:1006E00081F84A004F610B20A04791F84B004FF46E
:1006F000801300F0FE0081F84B004B611420A047EE
:1007000091F854004FF4001300F0FE0081F85400FB
:100710004B611520A04791F855004FF0807600F00E
:10072000FE0081F855004E611820A04791F858004E
:100730004FF0007500F0FE0081F858004D6119205F
:10074000A04791F8590000F0FE0081F859000120FF
:10075000C1F89400019A1046A04791F8C02002F019
:10076000FE0281F8C0200222C1F894202120A04777
:1007700091F8C12002F0FE0281F8C1200422C1F8E4
:1007800094202220A04791F8C22002F0FE0281F8B6
:10079000C2200822C1F894202320A04791F8C3204A
:1007A00002F0FE0281F8C320009BC1F8943026209D
:1007B000A04791F8C63003F0FE0381F8C630272029
:1007C000C1F894B0A04791F8C73003F0FE0381F858
:1007D000C7302820C1F894A0A04791F8C83003F092
:1007E000FE0381F8C8302920C1F89490A04791F801
:1007F000C93003F0FE0381F8C9302A20C1F8948083
:10080000A04791F8CA3003F0FE0381F8CA302B20CC
:10081000C1F89470A04791F8CB3003F0FE0381F843
:10082000CB304FF48053C1F894302C20A04791F87E
:10083000CC3003F0FE0381F8CC304FF40053C1F804
:1008400094302D20A04791F8CD304FF4804903F02B
:10085000FE0381F8CD302E20C1F89490A04791F886
:10086000CE3003F0FE0381F8CE304FF48033C1F870
:1008700094303020A04791F8D03003F0FE0381F887
:10088000D0304FF40033C1F894303120A04791F8B4
:10089000D1304FF4802803F0FE0381F8D1303220AC
:1008A000C1F89480A04791F8D2304FF4002703F0AC
:1008B000FE0381F8D2303320C1F89470A04791F83C
:1008C000D33003F0FE0381F8D3304FF48013C1F826
:1008D00094303420A04791F8D43003F0FE0381F81F
:1008E000D4304FF40013C1F894303520A04791F86C
:1008F000D53003F0FE0381F8D5303820C1F894607C
:10090000A04791F8D83003F0FE0381F8D8303920A1
:10091000C1F89450A04791F8D93003F0FE0381F854
:10092000D9304E20C1F81891A04791F84E3103F00C
:10093000FE0381F84E315220C1F81481A04791F88E
:10094000523103F0FE0381F852315320C1F8147183
:10095000A04791F8533103F0FE0381F8533158203A
:10096000C1F81461A04791F8583103F0FE0381F8F3
:1009700058315920C1F81451A04791F8593103F06A
:10098000FE0381F859310C4B98470C4B98470C4BA0
:1009900098470C4A536943EA090353610A4B4222C0
:1009A000C3F8A420094B984712E000BFF1110000E2
:1009B000D50300000080004141040000C104000094
:1009C0005105000000080040001C0040F11F00001D
:1009D0000449054B024605489847054B03B0BDE85E
:1009E000F04F184700380040B90D00008882002001
:1009F000090600000160828000207047F7B50446B8
:100A00000E4615460DF106030A46084F8188006818
:100A1000B84748B9BDF80630A1882068044C2B437C
:100A20003246ADF80630A04703B0F0BDF10C00002F
:100A3000E10C00004FF400720021014B184700BF89
:100A4000FD09000037B50C460DF106038188064DFF
:100A500000680122A84720B9BDF80630C3F380031F
:100A6000237003B030BD00BFF10C000010B5054C81
:100A7000054B20469847214600220448044BBDE818
:100A8000104018476C820020810C0000E881002093
:100A9000F509000037B5094B094898470028FDD1F2
:100AA000074D084C0DF107012846A04718B99DF8DD
:100AB0000730002BF6D003B030BD00BF350A000070
:100AC000E8810020450A00000C4B4FF480424FF0B3
:100AD00040204FF04041C3F88820C3F8A800C3F875
:100AE000A810C3F89820C3F80821C3F82801C3F858
:100AF0002811C3F81821024B184700BF008000419D
:100B00006D0A00000E4A08B542610E4B0E4A826122
:100B10006A2283F835204FF4C0629A850B4A116827
:100B20009288A3F83320062283F82E2046F66562C9
:100B3000C3F82F10DA86064B9847002008BD00BF87
:100B40007D790000AC82002061200000A48200209A
:100B50003920000010B588B008AB002243F8042DFE
:100B600005920692084A0168116081889180074ABF
:100B70000292074A0192074A009205A906AA064C6A
:100B80000648A04708B010BDA48200207D7A00006E
:100B9000050B00006C82002049470000AC82002059
:100BA000004B1847E9360000EFF31083036072B67C
:100BB000BFF35F8F7047BFF35F8F036883F31088C5
:100BC00070470000054B10B51C68054B9847054B56
:100BD00001462046BDE81040184700BF9C01002098
:100BE000D1110000E91100001FB50389ADF80430F0
:100BF0004FF40043ADF806300391054B029201A972
:100C0000143814469847002808BF204604B010BD89
:100C1000751C00001FB50389ADF8043048F20103CC
:100C2000ADF806300391054B029201A91438144621
:100C30009847002808BF204604B010BD751C00006E
:100C400010B5044B0446984718B9034BA361034BF6
:100C5000636110BD691C0000150C0000E90B000069
:100C60000368184743681847436903B1184770473A
:100C7000836903B118477047004B1847ED12000015
:100C8000004B184799130000004B1847A9130000A8
:100C9000004B1847A9140000004B18479D15000091
:100CA00010B431B101290DD06FF00C005DF8044B88
:100CB00070474261002A054A054B5DF8044B08BFA6
:100CC000002218478261002A024AF5E7690C0000F9
:100CD000F9150000710C0000004B184721160000A8
:100CE00010B4024CA4465DF8044B60474116000066
:100CF00010B4024CA4465DF8044B6047791600001E
:100D0000F0B505681DB90F4BBDE8F0401847D1F8A4
:100D100008E02C460026C2F1010C6368A7689342E4
:100D200095BFDB1963449B1ADB19734507D223680F
:100D3000264613B93046044BE6E71C46EDE7A542CC
:100D4000F8D1E0E7FD100000051100002DE9F047A3
:100D50000669037E44690136DA070546066110D448
:100D6000037E9B070DD4DFF84880DFF8489000F140
:100D7000140724B16368A268F31A934207D2BDE84E
:100D8000F0872B7E43F002032B76BDE8F0873846D0
:100D9000C047237C012B04D1666032462146384689
:100DA000C847D5F814A0E368204698475446E0E7C2
:100DB0000D110000010D000010B5044B04469847CA
:100DC0000020034B2061236010BD00BFA51E000062
:100DD0004D0D000038B5064B05469847044620B92E
:100DE0002846044B9847204638BD6FF0100038BDA8
:100DF000D91F0000C51F0000F7B5037E00F11406DF
:100E000043F0010303760446154B30460F469847DE
:100E1000054638B1237E03F0FE0323766FF0110000
:100E200003B0F0BD22690F4B7A60304639469847CF
:100E3000237E03F0FE032376207E10F00200EFD025
:100E400001A8094B9847237E03F0FD032376204633
:100E5000064B984701A8064B98472846E0E700BF95
:100E6000EF100000010D0000A90B0000F51F0000AD
:100E7000B70B0000034600229A62DB69083803B111
:100E800018477047034600229A625B6A083803B12C
:100E90001847704770B50446054BA0F108052C3083
:100EA0009847236A1BB12846BDE87040184770BDBB
:100EB0005311000010B5B0F84C301446B0F844207F
:100EC0009A420CD10023A0F8443001238164A0F899
:100ED0004C4003630830034B9847204610BD6FF029
:100EE0001B0010BD271C0000838FB0F844209A42DD
:100EF00010B504460AD0026C591C8187D15C044BA2
:100F00009847044B2046BDE810401847024BFAE7CB
:100F1000FB1B0000271C00002F1C00002DE9F743DD
:100F200005460F4BDFF8449001A834358846164635
:100F300098470C4B284698470B4B074601A8984703
:100F40000024A74201D0B44203D1A0B203B0BDE84F
:100F5000F08308EB04012846C8470134F1E700BFDD
:100F6000A90B000079110000B70B0000311100003F
:100F700038B504460D46343011461A460C4B984796
:100F800090B9294604F108000A4B984770B90A4BFA
:100F900063600A4B23600A4BA3600A4BE3600A4B71
:100FA00023610A4B636138BD6FF00C0038BD00BF90
:100FB00019110000611B00001D0F0000B50E00009C
:100FC000E90E0000950E0000750E0000850E000071
:100FD00008B50830014B9847002008BDE11B000010
:100FE0000860002070470000012908B50FD004D325
:100FF000022912D06FF00C0008BD8262003218BFC7
:10100000012201210830084B9847002008BD4262A8
:10101000003218BF01220221F4E7C262003218BF79
:1010200001220321EEE700BF371C00002DE9F84341
:101030000F4C0F46164600F10805A1462846A0476A
:101040000028FBD0DFF830800024395D2846C047F7
:101050002846C8470028FBD00134B442F5D3054EDA
:101060002846B0470028FBD02046BDE8F88300BFE3
:10107000091C0000131C0000F51B00002DE9F843BB
:10108000DFF82890DFF828800F461646002400F18C
:1010900008052846C8470028FBD02846C0473855D1
:1010A0000134B442F5D32046BDE8F8831D1C00008E
:1010B000011C000010B5054B04460830984718B9CC
:1010C000034B6360034B236010BD00BF551B000042
:1010D0007D1000002D10000008B50830014B984726
:1010E000002008BDCD1B000008600020704700688C
:1010F00000B970478842FAD10120704703680B603D
:101100000160704703680B600160704703680BB1B2
:101110001A68026018467047531E1A4001BF4360A8
:101120008260C26001600CBF10466FF00C00704717
:101130008368C2689A4209D0426813400268D35C4F
:101140000B70836801338360002070476FF00900E3
:101150007047C368426813400268D154C36881680D
:101160004268591A914288BF9A1A03F1010388BF55
:101170008260C36000207047C2688068101A7047A0
:10118000044B1968024609B90349196018680244FA
:101190001A607047A0010020F89501204FF0FF3041
:1011A00070474FF400534B60002070470120704798
:1011B000002070474309012200F01F0002FA00F0EE
:1011C0004033024A42F82300704700BF00E100E0CC
:1011D0007823584302300323B0FBF3F04FF47A73C3
:1011E00058437047000000000139FDD8704700BF28
:1011F00010B50A4A0A4C13889BB21380094B9847D2
:10120000094B9847094B98470220A047084B98473D
:10121000234640F6FD70BDE81040184700400041ED
:1012200049120000C1160000D5160000B5160000D6
:10123000F9160000034943F6FD734A681A42FCD1CF
:10124000704700BF001C004010B5C40704D50E4B0A
:101250000E4A1A620E4B9847810704D50A4B0D4A75
:101260005A620B4B9847420704D5074B0A4A9A62C9
:10127000074B9847030706D5034B084ADA62BDE8D7
:101280001040034B184710BD001C00400709010027
:1012900035120000000906000109060004090100DA
:1012A00013B5114C206803685A6900921A6A0192BA
:1012B0005A6A009A92060AD5009A5A61636804EB4A
:1012C000C303DB7BDB0902D0436803B19847019B72
:1012D0009B0703D52068836803B198472368019A68
:1012E0001B681A6202B010BDC0010020234BF0B58C
:1012F00001600B60224B4B600022224BCA600B61E5
:1013000040F20113C1F8B820C1F8BC301E4B03F104
:1013100020049C608024DA60DC7303F2FC541C61BE
:10132000C0245A615A60DC75C3F8D82B03F53E64BB
:1013300003F54667154607EB02161651A618083244
:10134000802A7560F7D193F8582C186042F0020299
:1013500083F8582C0D4A0E4BC2F868530D4ACA61E7
:101360004FF480128C61C3F88820BFF34F8FBFF316
:101370006F8F0020C3F888219A60F0BD1000030031
:101380000301100004070200C0010020B812002071
:1013900000E100E0C80100200268136843F00C037C
:1013A00013600020704700002DE9F74F3B4CD4F844
:1013B000D83B04EBC3038046DB7BDB09164613D026
:1013C000D4F8D83B04EBC3035B7BDB090CD1D4F826
:1013D000D82B531C012B88BF02F1FF3304EBC3034E
:1013E000DA7B42F08002DA73636804EBC303DB7BD1
:1013F000DB0950D040F2DC539E420AD96268531C8C
:10140000012B88BF02F1FF3304EBC303DB7BDB0955
:1014100041D06368C4F8D83BDFF888B0204B0D4654
:1014200001F6B83A40F2DC594E4560680193374600
:1014300028BF4F4629463A4609FB00B098476268E4
:10144000019B04EBC202F61BD76001BF626804EB8C
:10145000C202517B41F0800108BF517362680132C2
:1014600062606268022A05D100226260E27D42F079
:101470004002E2751EB105F2DC555545D4D1BFF3EB
:101480004F8FD8F80020136843F4007313600020D6
:1014900003B0BDE8F08F6FF01B00F9E7C00100203A
:1014A000EB840000E00100202DE9F84F0B4637499E
:1014B000374817464FF0FF3500248846D1F8682397
:1014C00022440F2A88BF103A00EBC20292F8E06B68
:1014D000F6071ED592F8E56B16F0400F18BF2546AB
:1014E000F60904F1010611D0B5F1FF3F0ED0B2F8B4
:1014F000E42BC2F30C02974228BF17464FF00009B5
:10150000CA46B2450DD14846BDE8F88F102E344684
:10151000D4D16A1C01D1264600E02E464FF0FF349C
:10152000ECE7611C17D0AA4515D3A24513D897B193
:10153000802FD8F868131748BB4628BF4FF0800BA0
:1015400000EBC1115A461846134B984703465B44BB
:10155000D944A7EB0B07D8F868230D4901EBC20269
:101560000AF1010A92F8E01B6FF3000182F8E01B18
:10157000D8F868230132C8F86823D8F86823102AFD
:1015800004BF0022C8F86823BBE700BFB8120020E0
:10159000C0010020200E0020EB840000F0B5144CA8
:1015A000144F0020014602462546D7F868331344FD
:1015B0000F2B88BF103BDB00E61896F8E0EB1EF01F
:1015C000010F13D096F8E56B760600D431B1E91817
:1015D000B1F8E41BC1F30C01084401212B4493F83A
:1015E000E53BDB0902D10132102ADED1F0BD00BF9C
:1015F000C0010020B812002051B101290DD1426074
:101600000368802112B1996200207047D962FBE71C
:101610000368826002209862F6E76FF00C00704762
:10162000036810B503EBC1001468C0F888402A3184
:101630009488D288C0F88C4043F82120002010BD47
:1016400010B50068920443F0A043046802F4F80265
:1016500043F40033C9051A4301F0786144F01004E3
:101660000A430460426383685B07FCD5036823F088
:1016700010030360002010BD10B50068920402F44E
:10168000F802046842F0C042C90542F4003201F099
:10169000786144F010040A43046042638268520790
:1016A000FCD5426B1A80036823F01003036000200E
:1016B00010BD0000014B01225A7170470008004024
:1016C000034BDA6902F47C52DA6101221A74704722
:1016D00000140040054B064A5A611A69D107FCD52F
:1016E000044A9A611A699207FCD5704700100040BD
:1016F00002260003062600030B4B3B225A63DA6BDB
:1017000012F0060FFBD1094A9A63022283F83020B7
:10171000054AD36B9807FCD4034B1A6CD10702D44B
:101720001A6C9207F9D57047001000404000020083
:1017300007B50C4A9378DBB20193019B990707D553
:10174000094B1B6823B15068984703B05DF804FB50
:10175000019BDB07F9D5044B5B68002BF5D0014AF0
:10176000F1E700BF00000241E8820020002808DB0A
:101770004209012300F01F0003FA00F0014B43F877
:101780002200704700E100E000280DDB4309012240
:1017900000F01F0002FA00F02033044A42F8230050
:1017A000BFF34F8FBFF36F8F704700BF00E100E0C2
:1017B000002809DB4309012200F01F0002FA00F0B3
:1017C0006033024A42F82300704700BF00E100E0A6
:1017D000C3690B42FCD17047C3690B42FCD170470F
:1017E000036823F0020303600321014B184700BF85
:1017F000D1170000036823F0020303600321014BAB
:10180000184700BFD917000070B50B4D06460FCD25
:1018100088B06C460FC495E80F0084E80F000020E4
:101820005DF82030B34202D1C0B208B070BD0130C3
:101830000828F5D10020F8E70896000008B5034B0A
:101840009847033818BF4FF0FF3008BD0918000053
:1018500008B5034B984780002E3000F0FE0008BD0D
:1018600009180000436843F4403343600421014BEE
:10187000184700BFD11700002DE9F0410D46574E23
:10188000D0F8008004210446B047438B15F0010FC7
:101890009BB2374664D0990717D50121017651884C
:1018A00089B241F480515180518821F4807109043A
:1018B00013F0010F4FEA1141518014BF6FF004057E
:1018C0006FF003052846BDE8F08113F0040515D03C
:1018D0005368002BC1BF53889BB243F4805353809D
:1018E00053881F0401D53E4B9847538823F48073D7
:1018F0001B041B0C53806FF00105E3E7538813F4BE
:10190000806715D013880421DB0903F00607B04770
:10191000436A03F4804343F0F1033B4343620421F1
:10192000B047538823F480631B041B0C5380C9E722
:10193000556845B953881E0401D5294B98475388EB
:1019400023F48073F0E793681B7883620421B04727
:101950009368013393605368013B53600025B1E7FE
:1019600015F00205AED05168002933D0580731D4A4
:101970000139C8F3C060516041B958B9636843F494
:101980008023636004212046B84703E0012901D188
:101990000028F3D1536893B953881B0409D56368B1
:1019A00023F48073636020460421B84720460C4B23
:1019B0009847538823F480731B041B0C538095684D
:1019C0006B1C936004212046B847A36A2B70022346
:1019D0002376C3E7022323768DE700BFD1170000EB
:1019E000651800002DE9F0410C46254B254E0746B1
:1019F00008469847E369244A13F0010F5FFA80F81C
:101A000017D1182303FB0863032120465D6A904722
:101A100023689B0705F01C0505D520461B4B9847FE
:101A200002212046904745F001052560032120460C
:101A30009047204601219047182303FB0866204663
:101A4000756A256003219047B36A636020460421CC
:101A50009047C5F30165F36AE360BD81636A012DB8
:101A600023F4804394BF0025012543EA85352046B1
:101A7000656204219047738EFB810020BDE8F081F0
:101A80003D18000008960000D1170000E117000083
:101A90002DE9F0412B4B2C4F2C4E04469847E3691F
:101AA000421E5542554113F0010F17D1182303FB75
:101AB00005730321DA6B204602F01C02B04723684D
:101AC0009B0705D52046224B984702212046B04768
:101AD00042F00102226003212046B0472046012146
:101AE000B047182202FB05722046D2F83C80C4F8A9
:101AF00000800321B047136C63601F212046B0476C
:101B0000536CA36018F4C04F1DBFA389B2F84810EE
:101B100092F84A20B2F848301FBF61F30C03A3814A
:101B2000A38962F34F33A381182303FB05750020BB
:101B300095F84B30A37395F84C3084F83030BDE8FD
:101B4000F08100BF0918000008960000D9170000B6
:101B5000F51700000160014B08461847911A000074
:101B60002DE9F8430646124B08460C4698470546B1
:101B7000D8B9104BB4619C4208BF0F4BDFF84880C6
:101B800008BF1E6020460D4B0D4F0E4E9847002497
:101B9000814609EB0401C9B20846C0470846B84768
:101BA00001340846B047042CF3D12846BDE8F88339
:101BB000911A000000300040241600205118000047
:101BC000B11700006D170000891700000068036856
:101BD00043F0020303600321004B1847D9170000AC
:101BE0008069036843F0020303600321004B184738
:101BF000D91700000368996270478369996270473A
:101C00000368986AC0B270470368187E00F001004C
:101C100070470368187EC0F3400070470368187E61
:101C2000C0F380007047836901229A757047836909
:101C300002229A75704711F0FD0F09D183690221C4
:101C4000012012B918751975704798759975704704
:101C5000012904D183690421002AF7D1F3E703297C
:101C6000F5D183698021F7E70161014B184700BF77
:101C7000E51900002DE9F843438807690E46D905A8
:101C800004467DD473889BB243F48073738096E8D6
:101C9000070084E807007B68434A43F480737B6055
:101CA0000421384690476168256901292B689046D0
:101CB00038D11A0136D56B6843F480236B60042158
:101CC0002846C047228812F4806F4FEA42022DD086
:101CD0006388DB0741BF63889BB243F48063638002
:101CE00004212846C0476B6A22F00102520503F422
:101CF0008043520D43F4004313436B620421284692
:101D0000C04722694FF48033117E013BC9B21FD115
:101D100028462246254DA847E8B96388DA0522D42B
:101D2000BDE8F8836B6823F48023C7E704212846C5
:101D3000B4F80290C0471FFA89F96B6AD2B209F071
:101D4000010942EA090203F480431A436A62D5E7B3
:101D50008807D9D0DCE7638823F480731B041B0C4D
:101D60006380BDE8F88322694FF48033117E013B24
:101D7000C9B209D08807F9D022463846A847CCE72F
:101D80006FF00500BDE8F88373881B0402D5384660
:101D9000074B9847638823F480731B041B0C6380F4
:101DA0006FF00400BDE8F883D11700007918000037
:101DB00065180000194B10B518688469237EDA078E
:101DC00008D5A37DDB0705D5012323750368BDE88E
:101DD00010401847237E990706D5A37D9A0703D59F
:101DE000022323758368F2E7237E5B070CD5638BA0
:101DF00003F0370313B1FF23638310BDA16A436867
:101E0000C9B2BDE810401847237EDB09F5D0802316
:101E10002376C3689847638B9BB2EDE724160020B6
:101E2000004B1847B51D0000004B1847B51D0000BA
:101E3000004B1847B51D000000280DDB43090122A7
:101E400000F01F0002FA00F02033044A42F8230099
:101E5000BFF34F8FBFF36F8F704700BF00E100E00B
:101E600003690B42FCD1704770B50D4D06460FCD8E
:101E700088B06C460FC495E80F0084E80F0000207E
:101E80005DF82030B34206D1C0B2003018BF012047
:101E9000404208B070BD01300828F1D10020F4E7BD
:101EA000709600002DE9F84380460C463F4B0846EB
:101EB0009847C8F80C4023693D4A13F0010F0746C4
:101EC00014D103212046904723689B0709D5236836
:101ED00023F002030321204623609047022120467D
:101EE000904701232360032120469047DFF8D090DC
:101EF000142505FB07950121204690476E6A266050
:101F000003212046904795F82A30E37306F00C062B
:101F10002B8DE380082E4FF0010323732BD1EB6A46
:101F2000E361C0212046904700232362C021204660
:101F30009047012363721F4B9C4204BF1E4BC3F8A2
:101F40000080142303FB07971C4BB7F922100846A7
:101F5000984700290CDB01F01F024909890001F1B3
:101F6000604101F5614101239340C1F880310B606C
:101F70000020BDE8F88336B9AB8DA383C02120468D
:101F80009047E683D2E7042ED3D195F82C302377FF
:101F9000C0212046904700236377C0212046904708
:101FA00095F82B30E3762021C1E700BF691E0000C1
:101FB000611E00000038004028160020391E000075
:101FC00070960000C068036843F0020303600321B9
:101FD000004B1847611E0000C26808B51046032177
:101FE000024B98471068C0F3400008BD611E000016
:101FF0000020704710B5064BC0689847054A142367
:1020000003FB0020BDE8104090F82200024B184767
:10201000691E000070960000B5110000054B18689D
:10202000C3689A7AD20703D501229A7203681847C7
:10203000704700BF281600201FB50346446A53F8B6
:102040002F0F01909B88ADF80830002101AA20468F
:10205000024B8DF80C10984704B010BDD90C00004D
:102060002DE9F0414A89476A088982420D4606D126
:102070004968144B384698470020BDE8F081C31CDE
:102080004FF6FC701840104B98470646B0B1DFF889
:10209000408003462C46628961681846C0476289C1
:1020A000246803461344002CF5D12A89054B314698
:1020B000384698473046054B9847DDE74FF0FF30EC
:1020C000BDE8F081890C00007D45000065440000FA
:1020D000EB8400002DE9F047DFF86C80DFF86C90AE
:1020E000164F05466E6A3046C04781B221B30022C2
:1020F0000320C8470446C0B1428941683046B8470A
:10210000636898890E4B9847B0F5006F03D040F68E
:102110000603984205D12B69294620469847002896
:10212000E0D02046074B9847DCE7024601463B4695
:102130003046BDE8F0471847BDE8F087910C000035
:10214000512100002D490000990C00008549000034
:1021500040BA80B2704740BA80B2704700BA704748
:10216000004B18475D210000037B8B421FBF0023FB
:102170000173437343837047038B30B54469E5189B
:1021800085F8F010991C013314FA83F3018383F866
:10219000F02030BD028B436910B51344541C0483F6
:1021A00083F8F01010BD038B426930B5D4180D0AC6
:1021B00084F8F0509C1C013312FA83F3048383F8F3
:1021C000F01030BD038B426930B5D4180D0E84F881
:1021D000F0505C1C12FA84F40D0C84F8F0509C1C36
:1021E00012FA84F40D0A84F8F0501C1D033312FA1D
:1021F00083F3048383F8F01030BD00002DE9F04133
:102200000C461646804638B94F4B50495048514C01
:102210004FF4D162A047FEE739B94B4B4E494C48C9
:102220004C4C40F28962A047FEE700224FF49A71BD
:1022300010464A4B9847206130B9494B4948984766
:102240004FF0FF30BDE8F081627B474B12B91A684E
:1022500001321A60196821603E4B4448984723694F
:102260005F68676101233B707B70002598F82E3012
:10227000BB70FD703E4B2068984763697860082EFC
:102280001D725D729D72DD721D735D739D73DD73D2
:1022900007D0042E05D0032E06D1227B043A012A52
:1022A00002D8D8F80420DA6000221A745A749A749A
:1022B000DA741A755A759A75DA751A765A769A76A4
:1022C000DA7698F82E5003F11C0190B2854288BF4F
:1022D00008EB020002F101028CBF90F82F000020F1
:1022E000102A01F8010BF0D103F12C0203F16C016B
:1022F000002002F8010B8A42FBD103F1EC0000211F
:1023000002F8011B8242FBD16FF07D00632283F84B
:10231000ED00532083F8EC2083F8EF2083F8EE00E3
:1023200000222183F03303F8012B0132442AFAD131
:102330000122204635210F4B9847204631460E4B4F
:1023400098470020BDE8F081A4960000C7960000E1
:10235000E6960000118500000E97000085490000F8
:10236000F98500002C97000000000020579700001E
:102370005D210000792100009521000070B5846A7C
:1023800090F8362090F837300F4E014605460F483A
:10239000B047082120460E4B9847002204F1240143
:1023A00028460C4B984710B10B480C4B9847637B61
:1023B0000B4801336373012363834FF4FA7133468F
:1023C000BDE87040184700BF118500006F970000FE
:1023D00069210000617800008A970000F9850000FB
:1023E000B2970000F0B5054685B04B4E30B94B4B67
:1023F0004B494C4840F2A332B047FEE7846A34B9F7
:10240000464B4949474840F2A532B047FEE790F8AD
:10241000381090F8373090F8362000910146434844
:10242000B047616B4F1C14D04148B047626B3C21F0
:1024300002F11E03B3FBF1F34FF6FF718B4228BF8D
:102440000B46002B56D04FF47A71A3835143394881
:10245000B047A16B481C14D03748B047A26B3C2151
:1024600002F11E03B3FBF1F34FF6FF718B4228BF5D
:102470000B46002B40D04FF47A71E38351432D4833
:10248000B047E38BA28B9A4202D30BB10023A38304
:10249000A37B002B32D0A36A0293E36A03932BB988
:1024A000636A029A134043F08073039327462348DC
:1024B00057F8241FB047394604AF2846204B9847A9
:1024C00057F8081D1F48B047394604AF28461E4B31
:1024D000984757F8041D1D48B047394628461C4BFD
:1024E000984728461B4B98470A2120461A4B984785
:1024F00005B0F0BD0123A6E70123BCE794F8243022
:102500001A0601D4FF23C7E7BF2B8CBF6FF07F43B0
:102510004FF6FF73C0E700BF11850000A4960000CE
:10252000DF970000E6960000F89700001098000082
:102530002D980000549800007F980000A598000096
:10254000D5460000BE980000A9470000D7980000BB
:10255000A1470000BD4700006921000010B538B94F
:102560000D4B0E490E480F4C40F2E762A047FEE7C4
:10257000038B4269591C13440183FF2183F8F01037
:102580000021038B432B00D910BD5C1C1344048332
:1025900083F8F010F5E700BFA4960000F098000063
:1025A000E69600001185000010B5044638B9084BC6
:1025B00008490948094C40F2D362A047FEE7006988
:1025C00008B1074B984700232361636110BD00BF2A
:1025D000A496000012990000E69600001185000004
:1025E0002D490000F7B5846A254F06462548B847AF
:1025F00004212046244B9847032221463046234B92
:1026000098470546002839D1022239212046204B1F
:102610009847B18D1F4B2046984720461E4B984740
:10262000218B20691D4BF03189B2984700964323D6
:102630001B4A216960681B4EB04720461A4B9847D9
:102640001A48B847617B1A480131C9B2092998BFB5
:10265000C1EB411361739DBF01EB8301C90089B2D6
:1026600042F2107101F2F3134FF4FA7293FBF2F39A
:102670006383104B9847284603B0F0BD0E48E0E74F
:10268000F98500003099000069210000FD2100005B
:1026900079210000A72100005D250000B14A00005B
:1026A000C8A50000E1730000A92500003E990000C4
:1026B0008299000011850000559900002DE9F34131
:1026C000846A344D07463448A847002363620621D4
:1026D0002046324B9847012221463846304B9847D6
:1026E0000646002853D12F48DFF8F080A847022281
:1026F00039212046C0472C4BB98D204698470422EB
:1027000037212046C047DFF8D88001212046C04746
:1027100003212046C0471C212046C04706212046F1
:10272000C047224B204698472148A847218B214B80
:102730002069F03189B298471F48A8470097432382
:102740001E4A216960681E4FB8471E48A8472046A8
:102750001D4B98471D48A847617B1D480131C9B2F0
:10276000052998BF4FF47A73617394BF03FA01F19E
:102770004EF6602101F2F3134FF4FA7293FBF2F379
:102780006383144B9847304602B0BDE8F08112488D
:10279000E1E700BFF9850000B09900006921000061
:1027A000FD210000C0990000A72100005D25000068
:1027B000DE990000B14A0000FA990000C8A50000A7
:1027C000E17300003F9A0000A92500005C9A000018
:1027D000A49A000011850000759A0000792100007C
:1027E000952100002DE9F74F846A90F8381090F891
:1027F000362090F837303B4E0091054601463A4866
:10280000DFF81491B04701212046384B9847032246
:1028100021462846364B98470746002860D1DFF806
:10282000FC80DFF8FCB0DFF8FCA002223921204652
:10283000C047304BA98D20469847042232212046BC
:10284000C047606AD84701462046D0470422362157
:102850002046C047206AD84701462046D047042278
:1028600037212046C047DFF8C08001212046C047FD
:1028700003212046C0471C212046C0470621204690
:10288000C04720461C4B9847218B20691B4BF031D9
:1028900089B2984700954323194A21696068194D08
:1028A000A8472046184B98471848C847617B1848E6
:1028B0000131C9B2052998BF4FF47A73617394BF8F
:1028C00003FA01F14EF6602101F2F3134FF4FA72AC
:1028D00093FBF2F36383B047384603B0BDE8F08F53
:1028E0000C48E2E711850000D49A0000692100003D
:1028F000FD210000A72100005D250000B14A000075
:10290000C8A50000E1730000A9250000F39A0000AB
:10291000389B00000B9B0000F98500007921000026
:1029200061210000C5210000952100002DE9F3413F
:10293000846A2D4E07462D48B047032120462C4B74
:1029400098470322214638462A4B984705460028D7
:1029500047D1022239212046DFF8CC80C047264BE0
:102960004FF4107120469847042232212046C04778
:10297000224B606A9847224B0146204698472046E2
:10298000204B9847218B20691F4BF03189B2984723
:10299000009743231D4A216960681D4FB8472046B0
:1029A0001C4B98471C48B047617B1C480131C9B299
:1029B000092998BFC1EB411361739DBF01EB8301EE
:1029C000C90089B242F2107101F2F3134FF4FA72A6
:1029D00093FBF2F36383124B9847284602B0BDE89D
:1029E000F0811048DFE700BFF9850000669B00001A
:1029F00069210000FD210000A721000061210000E5
:102A0000C52100005D250000B14A0000C8A50000F6
:102A1000E1730000A9250000749B0000B89B000032
:102A2000118500008B9B0000792100002DE9F04FFB
:102A30008DB0D0F828B059785668A94D0446BDF835
:102A4000580092461A780290D87801909B780093AB
:102A5000A4480B465146A847BAF80A10A248A8470E
:102A6000BAF80810A148A847BAF80A302B2B2F460D
:102A700003D89F489F4B98472CE03178022918D102
:102A800094F82EC004F12F0506F11C000021CBB2F2
:102A90009C4511D87068984DA847DBF800309842E3
:102AA00021D07068A847DBF8002001469348B8475A
:102AB00010E09348A8470DE015F8012B10F801EB42
:102AC00072450B4601F10101E1D0CDF800E0194655
:102AD0008C48B8470023CBF8083050468A4B9847BB
:102AE0000DB0BDE8F08F894B4FF00008C3F80480AB
:102AF000A3F80880C3F80080BAF80A302B2B1BD942
:102B0000DAF80430BAF80890CBF80830F023CDF8A2
:102B100010A0049A52899A4203D9049A52680792E3
:102B200065E19B1AA9EB0209049A126804929BB210
:102B30001FFA89F9002AECD175489BE7049A1268BC
:102B4000002A00F08382526812785FE1362900F093
:102B50009C8010D8342900F08E80352940F06681A1
:102B6000012A00F0E9806B4B6B496C485C4C40F2E9
:102B70009552A047FEE73A2900F091803B2940F0AA
:102B80005581042A00F0DC80624B65496348544C4F
:102B900040F2A152A047FEE7591E002589B24FF02E
:102BA000FF362A46023112FA81F292B20692002DC5
:102BB00000F0E98002339BB2099300230B93594B39
:102BC0000596F3180893059B099A9B1B02EB830358
:102BD000089A52789BB2002A40F0D580042D2A46EC
:102BE0000BA928BF042204984F4FB847042D40F288
:102BF000BD80AB0700F0A880464B4C494748384C95
:102C000040F2B452A047FEE7042A52D0414B444957
:102C10004248334C40F27C52A047FEE7032A4CD88E
:102C20003C4B43493D482E4C40F28152A047FEE7C1
:102C30000022910707D0374B3E493848284C40F2D4
:102C40008652A047FEE7082A154628BF0825954268
:102C500037D9304B36493148214C40F28952A04790
:102C6000FEE7042A30D02B4B2D492C481C4C40F257
:102C70008D52A047FEE7012A2AD0264B2649274835
:102C8000174C40F29152A047FEE7042A24D0214B72
:102C900023492248124C40F29952A047FEE7042AE9
:102CA0004AD01C4B1E491D480D4C40F29D52A04776
:102CB000FEE715461946062674E719460726042539
:102CC00070E7194608266DE715461946032669E799
:102CD00015461946002665E715461946022661E79E
:102CE00011850000E69B0000269C0000379C000038
:102CF0004C9C0000F985000061210000D59C00007B
:102D0000719C0000999C00002D490000F882002071
:102D1000E59D0000A49600002B9D0000E6960000B3
:102D2000109D0000F7820020614C0000549D0000BF
:102D3000199D00005B9D000015461946164631E7B7
:102D40001546194605262DE7089A0B98012302F827
:102D5000013F9C4B08929847059A9B4B43F82200F1
:102D60001346043D0133EDB205932CE72BD10B98AC
:102D7000964B98470B90964B059901225A54924BCB
:102D80000B9A43F82120049B069A5B899A422DD323
:102D9000D21AA9EB030992B21FFA89F94A450692A1
:102DA0001FD38B4B1A781E46002A4BD1B8F1000F67
:102DB0005AD1884D8848A84773782A46002B65D198
:102DC0008648A84786E6012D07D0854B8549864869
:102DD000864C40F2BE52A047FEE79DF82C300B9384
:102DE000C9E7049B1B6804935B680793069B079ADB
:102DF000D15CFF29D5D04B45D3D2049840895A1CC9
:102E00008242BFF69BAE079A1A44527833293FF4A8
:102E100028AF3FF69BAE01293FF4F6AEFFF4BCAEFF
:102E200003293FF4FBAE06293FF403AF6F4D704812
:102E300006920593A847059B069A19464FF0FF3660
:102E40000025AFE6604A1168002501291D7006D1F2
:102E50006848604B98474FF0EC096C2357E602290D
:102E600008D165485B4B98474FF000084FF06C095C
:102E70002C234CE6032905D16048564B98474FF068
:102E80000108E8E7594B5E4898478FE7DFF838912B
:102E900099F80430052B4F4638D15A48A8479BF87B
:102EA0000C30012B2BD1A56AF378C5F82880C5F822
:102EB0002C8013B1D9F80C302B633379D3B13B6933
:102EC0006B637379CBB17B69AB63AB681B696B6276
:102ED000B37923B13B4BB86998470123A862AB7320
:102EE000F3791BB1F869374B9847E862464B2046A7
:102EF0009847EFE52B6B5B08E2E72B6BE4E7033BBE
:102F0000022B3FF6E7AD2046404BF1E7062B2CD1D4
:102F10009BF80C30D91E022902D9012B7FF4DAADBF
:102F20003B48324E904794F8381094F83620A56A02
:102F300094F83730374800912146B0472046364B49
:102F400098473649364B204698473449354B2046FA
:102F500098473249344B204698472846334B0C213A
:102F60009847334B20469847B4E5022B7FF4B2AD27
:102F70009BF80C30062B7FF4ADAD2E48A847ABF87C
:102F80001A8094F8381094F83730A76A94F83620ED
:102F900029480091154D2146A847B3787BB1094BCC
:102FA000D9F808009847014638622448A847BB680A
:102FB000234819697962A8472046224BD3E7214666
:102FC000214877E55D210000048300206121000095
:102FD000F8820020F98500001B9E00003E9E000044
:102FE000A4960000689D0000E69600001185000090
:102FF000349D00007B9D0000919D0000A89D000075
:10300000C89D0000689E00007D230000E5230000AD
:103010007A9E00008C9E0000F5470000CCA50000C1
:10302000D5460000A1470000A94700006921000023
:10303000BD260000AF9E0000DB9E0000009F000048
:10304000249F0000E52700004B9F000033293FF438
:103050000AAE0CD801293FF4D9ADFFF49DAD032988
:103060003FF4DEAD06293FF4E3AD0022DEE636296B
:103070003FF40DAE06D834293FF4FFAD35293FF4B7
:1030800072ADF2E73A293FF40CAE3B293FF47CAD38
:10309000EBE700BFF7B50F46054638B92E4B2F4971
:1030A0002F48304C40F22632A047FEE72E482F4EE4
:1030B000B047AB6A002B4CD01B7B082B49D1396839
:1030C000284C2B48A047AB6A3A685B6A9A4227466D
:1030D0003FD12848B047AC6A2748B0470C2120466A
:1030E000264B9847042221462846254B984700281E
:1030F0002DD1042232212046224B9847224B606A70
:103100009847224B0146204698472046204B984737
:10311000218B20691F4BF03189B2984700954323DA
:103120001D4A216960681D4DA84720461C4B9847E1
:103130001C48B047637B1C480133637314236383CB
:1031400042F210713B4603B0BDE8F0401847174803
:10315000EFE703B0F0BD00BFA4960000EA970000BF
:10316000E6960000118500000AA00000F985000025
:103170001BA000004DA0000091A0000069210000EC
:10318000FD2100007921000061210000C52100001F
:103190005D250000B14A0000C8A50000E1730000F1
:1031A000A9250000A0A00000E8A00000BAA000002F
:1031B000F7B5846A264F06462648B84705212046BB
:1031C000254B9847032221463046244B9847054615
:1031D00000283AD1022239212046214B9847B18D4F
:1031E000204B2046984720461F4B9847218B20694B
:1031F0001E4BF03189B298470096432304F1200218
:10320000216960681A4EB04720461A4B98471A4801
:10321000B847617B19480131C9B2092998BFC1EB90
:10322000411361739DBF01EB8301090189B244F62B
:10323000206101F2F3134FF4FA7293FBF2F363830C
:103240000F4B9847284603B0F0BD0E48E0E700BF9B
:10325000F985000017A1000069210000FD21000090
:1032600079210000A72100005D250000B14A00007F
:10327000E1730000A925000024A1000065A1000061
:103280001185000039A100002DE9F8431F4B2048AB
:10329000204C1D68204E214FDFF89880A0470DB9C3
:1032A000BDE8F883AB6ABBB1DA8B511E012AD98322
:1032B00014D11B48A047D5F828901A48A04799F880
:1032C0000C3003F0FB02012A01D00A2B04D116486E
:1032D000A047164B284698472D68E0E79A8B511E69
:1032E000012A9983F8D13046A047D5F8289038466E
:1032F000A04799F80C3003F0FB02012A01D00A2BF9
:10330000EAD14046A0472846094BE4E7F092002066
:1033100092A10000F9850000F3A1000011A20000B5
:10332000A4A10000C2A10000D4A10000E525000076
:10333000B131000023A200002DE9F341846A2E4F31
:1033400005462E48B847002120462D4B98470023BC
:1033500023626362A362E362A3636363236307225E
:1033600021462846274B98470646002842D120464A
:10337000254BDFF8C4809847218B2069234BF0311F
:1033800089B298470095432304F1200221696068BF
:10339000C04720461E4B98471E48B847617B1E48D1
:1033A0000131C9B2092998BFC1EB411361739DBFB7
:1033B00001EB8301C90089B242F210714FF4FA7235
:1033C00001F2F31393FBF2F36383144B98472846FF
:1033D000134B984728461349134B984728461149E1
:1033E000124B984728460F49114B9847304602B078
:1033F000BDE8F0810F48D0E7F985000041A2000048
:1034000069210000FD2100005D250000B14A000097
:10341000A925000050A200009FA200001185000015
:10342000F5470000CCA50000D5460000A1470000EC
:10343000A947000071A20000E1730000F8B52C4B11
:103440002C4F1C682C4D04B9F8BDA36A23B15A8BCC
:10345000012A03D9013A5A832468F4E7FCD10022F7
:103460005A833846A847A66A2448A847337B0C2BC2
:1034700001D0062B04D12248A8472046214B08E062
:10348000012B0ED12048A847737B052B03D81F4B77
:1034900020469847E0E71E48A84720461D4B98471E
:1034A000EBE7082B09D11C48A847737B012B20466A
:1034B00094BF1A4B1A4B9847CEE7052B04D11948F5
:1034C000A8472046184BE4E7042B09D11748A84722
:1034D000737B082B02D82046154BDAE71548DBE74B
:1034E000032BB9D1737B012B2046C7D8124BD0E7F1
:1034F000F0920020CEA20000F9850000EFA20000AB
:10350000FEA20000BD26000023A30000E527000066
:1035100056A300003933000088A300007D2300007B
:10352000E5230000B8A30000B1310000E9A30000CA
:10353000E52500001BA400002D29000010B538B9B6
:103540000F4B10491048114C40F2CC42A047FEE707
:1035500090F83530846A23F0080380F835300C4841
:103560000C4B98475CB1606818B10B4B984700232F
:10357000636020460021094BBDE81040184710BD8C
:10358000A496000042A40000E69600001185000009
:103590005BA40000F985000075750000692100003A
:1035A000F7B50446374F30B9374B3849384840F201
:1035B0007A22B847FEE790F8381090F8373090F844
:1035C0003620856A009101463248334EB84794F858
:1035D000353023F0080213F0200F84F8352005D190
:1035E0002E48B0476FF00D0003B0F0BDA38DB3F5CA
:1035F000107F04D22A48B0474FF0FF30F4E7B5B946
:103600002848B0473C20284B9847054608B927482A
:10361000F1E7A0622648B8473C220021254B284606
:103620009847254B9847686048B92448E3E7244801
:10363000B04768680028EFD0224B9847ECE7027A41
:103640002149224B42F02002027244229847432231
:103650001D491F4B686898471E4B1F4968682246E2
:1036600098471E48B04720461D4B984718B1204642
:103670001C4B9847C0E794F8353043F0080384F8B2
:103680003530B1E711850000A4960000EA970000EC
:10369000E696000067A40000F985000085A40000FC
:1036A000A3A40000E3A400007D4500000AA50000DB
:1036B00030A5000001850000A575000079A5000077
:1036C0004DA5000075750000CCA5000049730000F1
:1036D000217500006D7500002D2A00009CA50000DA
:1036E000BD2600003D35000010B5074B9847074B3D
:1036F0009847074B9847074B9847074B9847074B06
:10370000BDE81040184700BF3144000025460000C6
:10371000D1460000A9710000694D00005D700000F5
:103720002DE9FF4104468846164624210022012047
:10373000194B9847054658B32768446800232371FE
:103740006371A371E37184F8008066703B4604F1F5
:10375000080207F11C0153F8040B42F8040B8B42DA
:10376000F9D10026A670E67069890C4B204698476F
:1037700004AA6080FB6842F8043D0123019300968F
:10378000FF2331462846064CA0472846054B98475C
:1037900004B0BDE8F08100BF85490000013A000097
:1037A000493D00002D4900002DE9F04F4668464F85
:1037B0003578DFF8388105F00F05AD00C5F1000B55
:1037C0000FFA8BFB87B0894659460446B847B0B913
:1037D0002389032B13D963681B78082B0FD1DFF8DB
:1037E00004A13A4ADAF80000494600F0F0030593D4
:1037F0009047CDF810A010B9059BE02B05D12046CD
:10380000434607B0BDE8F04F18472389072BF6D988
:1038100020462F4B98470028F1D1222120462DB277
:10382000B847002849D029462046B8470246002814
:10383000E5D12189274B0220984782460028DED017
:103840002146254A90470028D9D159465046DAF8F2
:103850000460B8470028D2D12046C0475446049B94
:1038600062681B68F3601D4B1B6833610023137093
:1038700053884FF6F6718B428CBF0933083353805F
:103880004FF0FF0A0023B372F3721421144B86F831
:1038900008A030469847294670812046B84702461E
:1038A0000028ACD101238DE80C00CDF808905346D8
:1038B0000C490D4D2046A847A1E76FF02101204695
:1038C000B84700289BD1CAE7B5480000893D0000F1
:1038D000113A000085490000794B00002C8300203C
:1038E000013A0000348300204D3C00002D490000C7
:1038F0000A4604300321014B184700BF213700005E
:103900000A4604300B21014B184700BF2137000045
:1039100013B5002310F00102ADF806301FD0994214
:1039200024DD431C00788DF80700013900200129AF
:1039300017DC02D11B788DF80630BDF80630034441
:1039400098B200EB134398B200EB134022B103028C
:103950009BB2C0F30720184380B202B010BD0346EB
:10396000E4E733F8024B02392044E0E71846E4E785
:103970002DE9F0470025DFF884A0064688469146E9
:103980001F462C461EBB25B1210289B2C4F3072471
:103990000C43D9F80020D8F80030174D100C10FA5D
:1039A00082F010FA83F000EB134004443846A84735
:1039B0000444BDF82000A847204484B204EB10441E
:1039C000A0B200EB1440C04380B2BDE8F08771891B
:1039D0007068D04773890444A0B2DB0700EB14443D
:1039E00007D52302C5F101059BB2C4F30724EDB24C
:1039F0001C433668C6E700BF5121000011390000A2
:103A000008B5024B9847C04380B208BD1139000089
:103A1000F8B50025104F06462C4646B925B12302BD
:103A20009BB2C4F307241C43E04380B2F8BD718904
:103A30007068B8477389204484B2DB0704EB1044F4
:103A400007D52302C5F101059BB2C4F30724EDB2EB
:103A50001C433668E1E700BF113900000C4B1B68BE
:103A60004BB90C4A126882B192F8351011F0010F6F
:103A700018BF134609E093F83520D207EFD55968EF
:103A800002684A4099680A42E9D11846704700BF67
:103A9000F0920020F49200202DE9F74F456895F848
:103AA00000804FEA1813042B04460F4606D0204628
:103AB000564B9847002003B0BDE8F08F544B688800
:103AC000984708F00F0863894FEA8808434506467F
:103AD000EDD323898342EAD3414628464D4B98478C
:103AE0000028E4D131464C4B204698474B4A2B697D
:103AF00013604B4BE968196091469A46494A4A4B14
:103B00003E464FF0010B96F83510C90704D4BBF1BF
:103B1000000F41D1366840E071680029F7D0D9F82C
:103B200000000192814206D0314600939847009BE5
:103B3000019A0028EBD0DAF8000050B139463A4B30
:103B400098470028B3D1DAF8003003F0F003E02BF7
:103B5000ADD0002EABD0EB8823F0C00333B12046AC
:103B6000324B984704460028A4D04568DFF8D88037
:103B70002F4E304BC8F800703946204635609847C4
:103B800008BB6B7A062B27D0112B18D0012B27D11D
:103B900039462046284B15E01668BE4208BF3668F5
:103BA0004FF0000B002EAED16B7A112BC3D1A8447D
:103BB000B8F80230B3F5884FBDD13E46C9E71F4B78
:103BC0003946204698470023C8F800303360CAF8C9
:103BD0000030C9F800306DE739462046184BF1E750
:103BE0003946D9F80000104B984750B9D9F8003041
:103BF00003F0F003E02B04D0656002212046114B56
:103C000098472046014B9847DDE700BF2D4900004B
:103C100057210000013A0000B14A0000348300201F
:103C20002C830020F0920020893D0000AD3F000071
:103C300038830020ED4C0000A9370000AD71000072
:103C4000695F0000F1380000308300202DE9F04F5B
:103C500087B01C469DF844309DF84080029307468B
:103C60008B46DDF848901646002A55D01421324A7A
:103C70009047019000285BD17D68029B2C726B728B
:103C80003068286181B24FEA104A452085F80180EA
:103C900028704FEA082848EA000844EA03243889D3
:103CA000264B039102939847019AAA71EA71244A1C
:103CB0006880029B01924444804610889847019A8C
:103CC000A8801388039901331380BBF1000F02D041
:103CD000DBF800300BB9D9F80430EB60EB6814FA6C
:103CE00083F404EB134421448A44C244504483B215
:103CF00003EB104000EB1040C0436881B9F82C3052
:103D000083B13A899A420DD90E4B3246494638461C
:103D1000984707B0BDE8F08F436806AE1B6946F8C8
:103D2000043DEBE7D9F81430324639464846EFE710
:103D30006FF00100EDE700BFB54800005121000021
:103D40002C16002095420000F0B5054685B01F46B0
:103D500010460B4B0E461446984770B19DF82C3018
:103D600001939DF828300290009322463B4631464D
:103D70002846044CA04705B0F0BD6FF00300FAE7F9
:103D80005D3A00004D3C0000431E033311D891F80A
:103D9000353013F002030ED04A6890420BD08B6886
:103DA00042401A4207D1DB4383430CBF012000206D
:103DB000704701207047002070472DE9F3470368E2
:103DC00001930DF103000DF1070C0F4600254FF094
:103DD0000A0E4FF02E08447800230DF1080AB4FBB8
:103DE000FEF69A440EFB1644303403F101090AF83A
:103DF000084C16F0FF045FFA89F917D100F8014F5B
:103E0000ED1B3C46FF2B04EB050611D1964206F153
:103E1000010519DA604504F1010784F80080DAD160
:103E200000232370084602B0BDE8F0874B46D4E774
:103E30005F1E9642FFB207DA02AE334413F8083C25
:103E400004F8013B3B46DDE70020ECE710B50446F3
:103E5000406908B1034B984721460620024BBDE854
:103E6000104018472D490000B94600002DE9F047E1
:103E7000466873689A8804460F46002A2DD11A684E
:103E8000426000F11C0100F1080252F8040B43F8F3
:103E9000040B8A42F9D101213046164B9847164B44
:103EA00030469847154B85B2304698476668DFF82C
:103EB0004880DFF8489096B9114E33689C422368D9
:103EC0000CBF33603B60214605200E4B9847B388FA
:103ED0005B1BB3802846BDE8F0870025E6E77368E2
:103EE0003046D3F800A0C04705443046ADB2C847BD
:103EF0005646E0E701390000054B00002D4900005F
:103F000030160020B94600002DE9F843DFF868803C
:103F1000DFF8689006460F4600250024D8F80030E8
:103F2000214620464BB908B1C8470544BD4201DAD5
:103F3000012CF2DC2846BDE8F883D6F80CE05A697B
:103F4000724509D1D6F810E09A69724504D1B3F8E8
:103F50000CE0B288964507D0013458B193F81FE0C1
:103F6000C27F964598BF18461A68002A18BF19469E
:103F70001346D7E71846F7E7301600206D3E0000DD
:103F8000084B70B51868084E002400B970BDC37F97
:103F9000056823B1013BC37704462846F5E721466F
:103FA000B047FAE7301600206D3E00002DE9F04FD3
:103FB0004468237803F00F03052B85B0054640F0D5
:103FC0008E80A84EE088A84FB04701906088B04727
:103FD0002378029028460393B847A44A0097938811
:103FE00003440A2B8046174670DCD7F800904FF048
:103FF000000AB9F1000F77D10520DFF890B2D84759
:10400000814650B941462046994B9847804566DC29
:104010000520D8478146002861D02022002148464B
:10402000944B9847032289F81F203A68C9F800206A
:10403000C7F80090224609F1080104F1140052F873
:10404000047B41F8047B8242F9D1884A91888844F4
:10405000A2F80480E18811F0200F144610D199F8DD
:104060001E20039B42F0010289F81E2003F00F027C
:10407000029BA3EB8202019B02EBC302A9F81C2066
:10408000D5F80480B8F80200B04798F8007007F03F
:104090000F07A0EB8707B8F80600B047C0F30C0085
:1040A000C000BFB26968D9F8046088800744002264
:1040B000BFB20A704A708A70CA70CF8001233EBBBB
:1040C000002A40F09180C9F8045030E00146684B66
:1040D0002046984718B1BB8843440A2B85DD284603
:1040E000654B984700256DE0E268D9F814109142BD
:1040F0000AD12269D9F81810914205D1B9F80C10EB
:10410000A288914200F09280CA46D9F8009070E7E8
:10411000D6F804C0BCF80480404557D20E60002A8F
:10412000D1D0D68886426ED847456CD8156099F8AC
:104130001E2012F0010545D0002BD3D0D9F8042061
:104140005568AA88002ACDD10A68002A52D1B9F848
:104150001C202E681432A9F81C20294609F10802F7
:1041600009F11C0052F8047B41F8047B8242F9D12A
:10417000424AB9F81C00424FDFF8148190470022F0
:104180006880AA71EA71AA72EA72284614213D4A2F
:1041900090476881D9F80450002E3BD122683A4BF1
:1041A0009145D9F8002018BFCAF8002049464FF0C1
:1041B000050008BF22609847009B28469847A388BF
:1041C000181AA080284605B0BDE8F08F1BD0BCF8B7
:1041D0000660864217D81AB1D288424518BF00231C
:1041E000DCF8006062466AE71560D288824218BF38
:1041F00000239CE75068C988828891427FF472AF9F
:1042000002680146A1E7009B28469847A388181A30
:10421000A08064E7D6F804B06FF013013046B847C9
:1042200031462846C047DBF80060B5E7E088B04774
:10423000C0F30C0000287FF408AFB9F80E00B047B7
:10424000C0F30C0000283FF400AF224609F108013A
:1042500004F1140052F8047B41F8047B8242F9D146
:10426000F3E600BF57210000054B00003016002088
:10427000093F0000018500002D4900005121000088
:10428000B5480000013A0000B94600007946000038
:10429000214B00002DE9F04F8FB08B8D08934368C0
:1042A0000C92069307910546D888564B98472C895F
:1042B000C0F30C030593143C00F400530A93A3B21B
:1042C0000393089B0822143B93FBF2F39BB20993E0
:1042D000DB009BB20B9300261427039B1BB91846E7
:1042E0000FB0BDE8F08F059B039AC3F30C0A0A9B3D
:1042F00043EA0A0A089B133B9342D4BF0B9B039BE0
:1043000004934FF000024FF014014FF002003E4BB7
:10431000D8BF4AF4005A9847804620B3069B4268AB
:104320001946143153F8040B42F8040B8B42F9D1AF
:104330006B68D8F804903B446B606B89DF1B6F811E
:10434000049F002F32D06E89BE4228BF3E46B6B2CF
:104350000EB92D68F5E706202C4B9847834628B9FF
:1043600040462B4B98474FF0FF30B9E701966B68FA
:1043700000930222034631460320264CA04720B971
:1043800059460620244B9847EAE70D90234B2846D0
:104390009847BF1B224BCBF81030CBF814500D9927
:1043A000204B4046BFB29847002FD2D15046DFF88D
:1043B0007CA0D047049BA9F8060003F1140080B24A
:1043C000D04789F80A70A9F8020089F80B70142107
:1043D000154B48469847079B0C9AA9F80A005B6959
:1043E0000798414698470A4B40469847039A049BD2
:1043F000D41AA3B20393099A059B13449BB2059365
:1044000037466AE7572100008549000079460000D9
:104410002D49000061480000B9460000154B00001E
:104420004D3E0000214B0000013A000051210000E8
:104430000A4B0B4A23F003034FF47A6100205880A3
:1044400018715818506001201360198083F8A40F68
:10445000A3F8A01FA3F8A21F936070473F8300201A
:1044600038160020F0B5002836D01C4A1368984250
:1044700032D35568A8422FD2002100F8041C30F82E
:10448000084C9168A0F108068E4203EB040138BF86
:1044900096608E420ED00F7967B98D420AD095682A
:1044A000A942195B20F8081C195B08BF96601944E3
:1044B000F41A4C8030F8061C5C18A6420CD0257902
:1044C00055B99568AE4208BF946030F8082C5A522E
:1044D00030F8082C13445980F0BD00BF3816002076
:1044E00003314FF6FC730B400B2BF0B504D9B3F539
:1044F0007A6F02D90020F0BD0C231F4D2A6882423A
:10450000F9D869688842F6D2A0F1080130F8086C41
:10451000891A89B2A6F10804641AA4B29C42E9D3AC
:10452000E9D0971997F804E0BEF1000F0BD101F123
:1045300008042344AC68965B9BB2A74202EB0304D9
:104540000DD1AC600BE003F11407A742D3D801F101
:10455000080423449BB2AF68D418BC42F1D30025B1
:104560002571D652618020F8083CD15AB1F57A6F96
:10457000C1D00A445380F0BD381600202DE9F04127
:1045800048B103304FF6FC7303400B2B05D9B3F54C
:104590007A6F03D90020BDE8F0810C23204CA76876
:1045A00021687A1A92B2C3F57A6C6FF007086245F7
:1045B000F0DA88188E5A90F804E0BEF1000F2CD182
:1045C000A8EB020535449D4227D303F1140C654541
:1045D0001DD3083313449BB2CD1885F804E0CE52A6
:1045E0006A80012203800271CA5AB2F57A6F01D043
:1045F00011444B80874207D194E8060003461D7999
:104600000DB1934206D1A3600830BDE8F0810123CB
:104610000371EFE71B880B44F1E73246C7E700BFA1
:10462000381600202DE9F043104A1148114C0023A0
:1046300022F003029E46054604F1140C40F823E0E4
:1046400034F813809E004FEA430900218FB2B84529
:1046500004D801330A2BF1D1BDE8F083AF591760BC
:1046600039F80C70AA5101313A44EFE7471600209F
:10467000687F0020D0A50000092810B507D9094B94
:1046800009490A480A4C40F28912A047FEE7094B43
:1046900003EB8003D3F8540310B10268C3F854232A
:1046A00010BD00BFF8A500001BA60000E6960000A4
:1046B00011850000147C002039B1044B03EB80000D
:1046C000D0F854330B60C0F854137047147C0020AA
:1046D00070470000F8B505460C4659B10A684368B2
:1046E0009A4206D00D4B0E4F186828B90D4B1B6827
:1046F00053B924686C60F8BD02686B68C6689A425A
:1047000000D1B8473046F0E71A6822B169688A429A
:1047100004BF22681A60DB68EAE700BF009300204C
:104720006D5500000893002070B515461C46054BDA
:104730000646984705B12D68B56004B12468F46059
:1047400070BD00BFD5460000F8B5124F069E466208
:104750003E7880F83860002506F1010E089E06615B
:10476000044645608560C56080F835508562C56146
:104770000562094E87F800E0B0472046079B98473E
:1047800028B9064B1A6822601C602046F8BD2C46EA
:10479000FBE700BF907F002029470000F092002037
:1047A00001B10968C160704701B109688160704753
:1047B000014B1860704700BFF492002010B590F8CC
:1047C0003530DA07044612D443F0010380F835305F
:1047D000C36903B1984794F8353003F03003302BA8
:1047E00005D1211D2046024BBDE81040184710BDE1
:1047F0006577000010B590F83530DA0704460DD51E
:1048000023F001029B0680F8352001D5044B984720
:10481000E3691BB12046BDE81040184710BD00BF3A
:104820003977000000B1C161704700B10162704783
:10483000084B002210B51A70074B1C6804B910BD54
:10484000606F20B1054B98470023636710BDE46893
:10485000F4E700BFF892002000930020054E00000E
:1048600070B5049D032823D8DFE800F01E021A1C4F
:104870002220033020F00304BDF81400661886429D
:104880004FF0000015DC186085B12C445C600220FC
:104890001A730122587319815981DA81184670BD43
:1048A0000E20E6E70020E4E73620E2E75D60EEE771
:1048B000002070BD10B519B300282ED000290CDAE5
:1048C0004A42438992B2934208D2144B1449154884
:1048D000154C40F20222A047FEE78AB2047B4368EF
:1048E0000CB1032C0ED15B1A00F11002934213D3CA
:1048F0004360438989B20B44438103891944018190
:10490000002010BD013C012C06D8002904DA44899E
:10491000944201D35B1AEBE7012010BD38A60000DA
:104920005BA60000E696000011850000F8B5014680
:1049300010B3124E124D0024E0B201B9F8BDCB897C
:10494000013B9BB2CB81BBB94B7B0F689B0705D565
:104950000B690846984701343946EDE70B7B032B7A
:1049600002D10920A847F6E7013B012B01D8082016
:10497000F8E70846B047EEE7F8BD00BF6544000021
:10498000B94600002DE9F0470E461746032846D8E1
:10499000DFE800F00D02090B2225032F3FD8DFE8E6
:1049A00007F0587171080E25F7E70025F5E7362561
:1049B000F3E709203A4FB847044628B9394B01229A
:1049C0001A702046BDE8F087032142190D4425F0F6
:1049D0000305C5F5BD650435133222F00302B54267
:1049E0004FF00003A8BF35464260012245810173A4
:1049F00003600681C281751B80468A469946002D58
:104A000004DC0123E38100236373DAE70920B8475C
:104A100038B9244B01221A702046234B98470024B2
:104A2000CFE7AAB240F2EC539A4280F80CA080F88B
:104A30000D90C0F80090C8F80000028128BF1A4607
:104A400000F11003436001234281C381AD1A804607
:104A5000D5E705F11300F31C23F0030320F0030056
:104A6000184480B2114B984704460028D7D0431908
:104A7000133323F003034360002306814681036060
:104A80000373BEE70820064B984704460028C6D0AB
:104A9000002343600681468103600773B1E700BFCE
:104AA00079460000F89200202D4900007D45000065
:104AB00038B503898B42044618D90D46CB1A618953
:104AC0008D4214D8237B4BB98D4207D061680B4BC4
:104AD000091B2944204689B298470446206865810D
:104AE000258108B1064B98470023236038BD2289F1
:104AF0006D1A1A442281ADB22468E0E7E144000057
:104B00002D49000003460022D0B2013203B970479C
:104B10001B68F9E710B1C3890133C38170470000F6
:104B200010B500B141B9094B09490A480A4C40F295
:104B3000DF22A047FEE7204603890A890468134460
:104B40000381002CF7D1016010BD00BF38A6000022
:104B500079A60000E69600001185000010B5044B10
:104B60000C4698472046034BBDE81040184700BF4D
:104B7000214B0000154B00002DE9F8430C4605467B
:104B800020B119B102890B899A4207D22D4B2E49C7
:104B90002E482F4C40F24B32A047FEE74FF0000862
:104BA000DFF8B890474663896E8961686868F61BCC
:104BB000A3EB08039E42ACBF9EB2B6B2324641445C
:104BC0003844C8473744638946441FFA86F843454A
:104BD0006B8998BF2468BFB298BF4FF00008BB42F2
:104BE0001ED12D68DDB9BCB1164B1A491748184CB7
:104BF00040F26532A047FEE7628923899A4211D1CB
:104C000023687BB10F4B14491048114C40F26A32B3
:104C1000A047FEE7002CC6D10020BDE8F88300279E
:104C2000002CE9D16A892B899A42F3D12B68002B99
:104C3000F0D0044B08490548054C40F26E32A047BD
:104C4000FEE700BF38A60000AEA60000E696000012
:104C500011850000DEA60000EBA60000EB8400003A
:104C60002DE9F84388461746054638B9194B1A49C5
:104C70001A481B4C40F28732A047FEE739B1DFF8F3
:104C80006890002607B155B93046BDE8F883114B4E
:104C900014491248124C4FF46272A047FEE733B138
:104CA00069898B4203D35B1A9BB22D68EAE76C8952
:104CB0006968E41AA4B2BC4228BF3C4622461944A3
:104CC00008EB060026443C1BC847B6B2A7B2002337
:104CD000EBE700BF38A6000016A70000E69600002C
:104CE0001185000035A70000EB8400002DE9F84F86
:104CF00043681A4D93F809802C68DFF86490DFF858
:104D000064A00746002614B92046BDE8F88F237C2E
:104D100043451ED123681BB1DAF80020934218D115
:104D2000D4F814B0BBF1000F13D04B463A462146DD
:104D3000A069D84738B176B1E368F3602B68E360C7
:104D40002C6001200027E36826460028DDD11C46A0
:104D5000D9E70020F7E701203746F4E7947F0020E9
:104D60002C83002034830020704770B5016B858D43
:104D7000846A02466B1A1819D38E40F66836B3421D
:104D800094BFC31A831B002B01DBD58570BD631A4A
:104D9000002B4FF00000D6BF091BD085D18570BD18
:104DA000838D194489B241F2D063994210B58CBF0A
:104DB00083858185084B0446984740F2B353984257
:104DC00008DDA37F43F00203A3772046034BBDE831
:104DD0001040184710BD00BF6B4D0000316A000045
:104DE00010B5044648B1406808B1044B98472146C5
:104DF0000420034BBDE81040184710BD2D490000AA
:104E0000B946000038B5034C00B938BD0568A04765
:104E10002846F9E7E14D000038B50446094B042067
:104E20009847054660B120462B4604F1140250F81D
:104E3000041B43F8041B9042F9D16868024B984761
:104E4000284638BD79460000154B0000037E012B33
:104E500070B5044617D90A2B15D0806F18B10A4BCC
:104E600098470023A367094E606FB04700254FF6AF
:104E7000FF73A386E06E6567B047206FB047E566B5
:104E80002567A4F86A5070BD2D490000054E00004A
:104E90002DE9F04FAD4DAE4F2B68DFF8E4920133B2
:104EA0002B603B7885B001333B700297A94BDFF84C
:104EB000D4B21C68002698465CB9A74FDFF8C482BC
:104EC0003E68DFF8A492002E40F0298105B0BDE8CD
:104ED000F08F029B94F821201B789A4205D1D4F8D8
:104EE0000CA0344626465446E6E7217E84F821305D
:104EF000022994F8460002D1062800F0CD800C2843
:104F000000F0CA8094F89570002F00F08E809349CD
:104F100094F8942039440132C97BD2B2914284F88A
:104F2000942074D90027227E062A09D1A17FCB06BE
:104F300006D52968606A091A282984BF7B1CDFB25C
:104F400094F808A01AF0080A18D0042A02D0072AF8
:104F500040F0B5802868626AD4F89030801A03F572
:104F6000242101F6B8414FF4FA7EB1FBFEF18842EC
:104F700040F294807B1CDFB24FF0010A606F68B191
:104F80002A68616A511AB4F9442002EB4202B1EB7B
:104F9000420F03D3724A904700226267227E032A9F
:104FA00040F090802A68616A521A282A02D8002F9D
:104FB00000F093802046D847E368002E00F08A80F6
:104FC000F360BAF1000F09D0A38B0193638B0093B8
:104FD0002246231DA16A206D624FB8472269D4F88A
:104FE0008C70D4F80CA00392214602205E4CA0479E
:104FF000002189F8001027B1039A6FF009011046CB
:10500000B84799F80030002B3FF46BAF4EE7062FFE
:1050100098BF7B1C4FF0000298BF84F8953084F84D
:1050200094202046514B98477CE7B4F93420002A5D
:10503000A4BF0132A286226F002A3FF473AFB4F9F5
:1050400034E0B4F944209645FFF66CAF02290BD04A
:10505000B4F94010B4F9422002EBE1023F490144A7
:10506000C97D8A40A4F844200022B4F84C10A286DE
:10507000B4F860208A4228BF0A46E18EA4F84C109A
:10508000480052088242A4F84E20B8BFA4F84E004F
:10509000374A2046904746E7012744E794F8962090
:1050A000344901FB0232B2FBFEF2904207D9324A88
:1050B0002046904794F89620013284F896204FF0CD
:1050C000000A5BE7092A7FF472AF2A68616A521A04
:1050D000F02A6BE7C8F8003073E7E27F94F82010FD
:1050E000D4F80CA00132D2B29142E2773FF6FAAE88
:1050F000D4F88820E77789F8007072B121462069DA
:10510000904799F80030002B7FF4D0AE00287FF450
:10511000E9AE2046194B9847E4E63846F1E72B689C
:10512000726A9B1AF02B0AD83446F668CBE6E36025
:10513000D6F80CA031460220C8475646C3E6304692
:10514000C047F368002CF2D13B60F1E704930020E4
:10515000987F002000930020149300208CA700006B
:10516000054E0000C16C0000B9460000C16E000091
:10517000716D0000F8240100556E0000316A0000D6
:10518000FC9200204D4E000003688B4210B50C4687
:1051900017D1CB6803600023E3602046124B984789
:1051A000237E0A2B0AD0012B08D0A37FDA0705D56E
:1051B00043F00203A37720460C4B98470023237645
:1051C00010BD0B4A002113601BB90029E3D0136006
:1051D000E1E7D868844204D101B11360E268DA6083
:1051E000D9E701210346EFE74D4E0000316A000088
:1051F0000C93002037B5037E0446002941D0042BD0
:1052000001D0072B3DD1A26F22B9A18D41F2D0620E
:10521000914236D0A38B0193638B00932246231DCA
:10522000A16A206D424DA847424B20469847424A0A
:1052300013689C4202D1E36813600CE03F4A0021EE
:1052400013600BB939B1F7E7D868844216D101B1C0
:105250001360E268DA603A4B01221A70237E00255F
:10526000042BE5603AD10A232376364B1A68E260B4
:105270001C60354B9847002003B030BD0121034628
:10528000DFE7072BF7D801A252F823F0AD52000058
:10529000E9520000FB5200000B5300000B530000CA
:1052A000775200007752000021530000638BABB1AE
:1052B000264A13689C4202D1E36813600CE01F4A3F
:1052C000002113600BB939B1F7E7D868844208D1DF
:1052D00001B11360E268DA600023E3602146022036
:1052E00008E001210346EDE721461948194B98478C
:1052F00021460320184B9847BDE7164B0E48214620
:1053000098470F4B01221A70E8E72046134B984745
:105310000028B1D1052323762046114B9847AAE7F0
:1053200020460E4B98470028A6D10923F3E700BF7B
:10533000C16C00004D4E0000009300200C93002033
:10534000FC92002014930020E56F000010930020D1
:105350000893002089510000B946000069690000E7
:10536000316A0000037E012B1EBF837F43F01003D0
:1053700083770121004B1847F551000010B508460E
:1053800014463AB1064B118998472046054B984779
:10539000002010BD002BFBD1034BBDE81040184787
:1053A000A14D00002D49000065530000F8B5866F3F
:1053B000D0F88050777B002304468367E5B101462F
:1053C00032460069A8470546E8B9BB0612D5A38D49
:1053D000D4F8806041F2D06293421CBF0133A385B0
:1053E00046B100231A4621462069B0470A3001D150
:1053F0006FF009052846F8BD2B460146324628467F
:10540000044DA847DFE710F10A05F1D0A667002593
:10541000F0E700BF7D5300002DE9F047174D184F0E
:105420002B78DFF8648001332B703C68154EDFF871
:105430005C902B780CB9BDE8F08794F821209A4253
:10544000F8D084F82130A37FDA0708D543F00203AF
:10545000A3772046C047A37F23F00303A377A36F5E
:10546000D4F80CA00BB95446E3E700232046337070
:10547000C8473378002BF6D0D7E700BF987F0020CD
:1054800000930020FC920020316A0000AD53000020
:10549000074B10B59847074A53780133DBB2537076
:1054A000DB0703D5044BBDE81040184710BD00BF13
:1054B00019540000987F0020914E0000037E0A2BB3
:1054C0002DE9F347224B234E04468A4609D1014673
:1054D0002148984721460220334602B0BDE8F047F4
:1054E0001847D0F85080D0F82890D0F88C50076931
:1054F00001461A4898471A4B206F01221A7008B1CA
:10550000184B9847E06E08B1164B9847606F08B18A
:10551000144B9847BAF1000F0AD0A38B0193638B09
:1055200000934046231D22464946DFF83C80C04791
:1055300021460220B0473DB16FF0090138462B46A5
:1055400002B0BDE8F047184702B0BDE8F08700BFE1
:1055500089510000B94600001493002000930020F8
:10556000FC920020054E0000C16C00000121014B9F
:10557000184700BFBD540000034B044A5868126826
:1055800010445860704700BF0400002004930020BE
:10559000F8B507463B4D3C4E0220A8470446F0B9FB
:1055A0003A4B30681B682146002B53D114B120467A
:1055B000374B98470220A847044680B9354BD6F8A8
:1055C00000C01B687F20A646002B4BD114B120469B
:1055D0002F4B98470220A8470446002838D098222D
:1055E00000212D4B2046984740F66833A4F86630DA
:1055F00041F2D063A385E385FF23A3724FF40673C2
:10560000E3860623A4F84430A4F842304FF6FF7333
:105610000021A3860123A4F84C3067761F4BA4F821
:1056200068106172A4F840109847336863621C4B9D
:10563000A0651B7884F821301A4BC4F880301A4BCF
:105640002065A064E065E177C4F8903084F8961096
:105650002046F8BD5A6A821A8A4224BF1C46114667
:10566000DB68A1E7597E8F4209D3814207D85A6A85
:10567000ACEB0202724522BF084696461C46DB6828
:10568000A2E700BF79460000049300201493002095
:105690006D55000000930020018500007955000041
:1056A000987F00207D53000000DD6D0010B5074B92
:1056B00004460846984730B1838D23B1283B9BB2FE
:1056C0009C4228BF1C46204610BD00BF5D3A00002A
:1056D0002DE9F84F03691F4E054698890C46B047DF
:1056E000C2071BD41C4FDFF87C80DFF87C90CCB164
:1056F000D4F810E038682B89DEF8041022890344BE
:105700000A449A1A002A10DA5B1A002B0ADD091AD9
:1057100089B229816868114B984703E02046104BF5
:10572000984700242C60BDE8F88FBEF80C00B04705
:10573000C30709D5D5F810B00120BBF80CA0C047AD
:105740004AEA0000ABF80C00D4F800A02046C84795
:105750005446CCE7572100009C7F0020B14A00004E
:10576000054E000051210000E14D00002DE9F74FEA
:105770009A4D2B79DE0604466AD5636D2A68B0F827
:105780006010806D9E1A002E0CDB934203D1AB6833
:10579000C31A002B06DBAB6898421BD1EB68DB8990
:1057A0008B4217D9EB68B4F86270DE896265B74244
:1057B000AA68A265A4F8606038BFA4F8626094F893
:1057C0009520002E40F0FF8022B984F894600123D8
:1057D00084F89530AA68A66C931B002B00F30E8109
:1057E0000023A4F864302B8A002B40F06983014425
:1057F000B4F86030A06D0344994240F06183B4F97D
:105800003430002BC0F25C83B24240F0598394F8EC
:105810004720531CDBB29A4238BF84F8473094F8D3
:105820004730032B40F2D480B4F84C20E38E13446D
:105830009BB29A4201D2A4F84C30DFF8B881684F8D
:10584000E36E002B40F05C81A26B002A40F0948153
:10585000288AA26A002800F02683237E062B00F205
:1058600022832B68D61A012E00F1B381C3F1010106
:10587000091A1144002900F3AC81A86943899E42AA
:10588000314640F3A48103899B1B9BB200264289C9
:10589000914200F39781494209B2524B9847A98B34
:1058A0002B68A26A2A600B449B1AAB836B6A5A600E
:1058B0002968A26A8B1A002BC0F2EF824B1CA08DC4
:1058C0009B1A1B1A002B00F3E882914240F03882A9
:1058D0006B6A434E9889AF8BB04710F0030018BF36
:1058E00001203844A38D80B2834228822DD26B6A76
:1058F0009889B047C3070ED5D5F82480B8F80C7046
:105900003846B047384B00F03E00984727F47C57A4
:105910000743A8F80C70A38DAB836B6A9889B047D6
:10592000870748BFAB8BA86944BF03F1FF33AB8344
:10593000A98B2E4B98476B6AAF8B9889B04710F0B4
:10594000030018BF012007442F82636F002B00F073
:105950004E816B6A9889B047C00700F17981676F03
:10596000DFF88480DFF890905FB3D7F810E0286804
:105970002B8ADEF80420398903441144591A00297E
:1059800080F268819B1A002B1BDD6B6A121AAA83B6
:105990009889B047830748BFAB8BA86944BF03F120
:1059A000FF33AB83A98B114B98476B6AB5F81C800A
:1059B0009889B04710F0030018BF01208044A5F873
:1059C0001080676713E1002A3FF404AF0023FFE66D
:1059D0007FF433AF2046064B98472EE79C7F00208C
:1059E00057210000B548000051210000B14A0000D5
:1059F000016E000061210000E14D0000216D511A8F
:105A0000002979DCA17FB4F94060A264480741BF56
:105A100021F00401A177B4F84E10A4F84C10B4F8AA
:105A2000421001EBE601A4F84410B4F866109BB2F2
:105A3000A4F864300B44A4F86630237E0020032BC6
:105A400084F8460084F847000CD9B4F84E30B4F816
:105A50004C209342E38E14D913449BB29A4238BF30
:105A6000A4F84C308E4F8F4EDFF84082236F63B91D
:105A7000226F0023002A3DD14FF6FF72A286E37702
:105A8000DBE65B4393FBF2F3E6E71B695868B84734
:105A9000236FB3F808A01B6981469889B047AB68AB
:105AA00010F0030018BF01205044A9EB030948443B
:105AB0000028DDDCD4F87090D9F800302367B4F802
:105AC00064305BB1D9F810309889B047C10742BF44
:105AD000B4F8643003F1FF33A4F86430D9F804005B
